:020000040800F2
:1000000018070020D501000881140008530E0008CD
:100010007D140008690A00085D1F00080000000048
:10002000000000000000000000000000991B000814
:100030006D0A0008000000001D1B0008D91C000804
:10004000EF010008EF010008EF010008EF010008D0
:10005000EF010008EF010008EF010008EF010008C0
:10006000EF010008EF010008EF010008EF010008B0
:10007000EF010008EF010008EF010008EF010008A0
:10008000EF010008EF010008EF010008EF01000890
:10009000EF010008EF010008EF010008EF01000880
:1000A000EF010008EF010008EF010008EF01000870
:1000B000EF0100083D1D0008411D0008EF01000888
:1000C000EF010008EF010008EF010008EF01000850
:1000D000EF010008C11E0008EF010008EF01000851
:1000E000EF010008EF010008EF010008EF01000830
:1000F000EF010008EF010008EF010008EF01000820
:10010000EF010008EF010008EF010008EF0100080F
:10011000EF010008EF010008EF010008EF010008FF
:10012000EF010008EF010008EF010008EF010008EF
:1001300000F002F800F03FF80AA090E8000C8244BA
:100140008344AAF10107DA4501D100F034F8AFF297
:10015000090EBAE80F0013F0010F18BFFB1A43F0A5
:10016000010318471491000034910000103A24BF95
:1001700078C878C1FAD8520724BF30C830C144BF0C
:1001800004680C607047000000230024002500264E
:10019000103A28BF78C1FBD8520728BF30C148BFEA
:1001A0000B607047642900F06780002070471FB51E
:1001B0001FBD10B510BD00F0CBFA1146FFF7F7FFD9
:1001C00003F0ECFC00F0E9FA03B4FFF7F2FF03BC24
:1001D00001F049FF0948804709480047FEE7FEE76C
:1001E000FEE7FEE7FEE7FEE7FEE7FEE7FEE7FEE7E7
:1001F00004480549054A064B70470000DD1C00080D
:100200003101000818010020180700201803002001
:1002100018030020704710B54C1084EA530404D52D
:100220004042C1F1000138BF491E1B4204D5524271
:10023000C3F1000338BF5B1E00F02EF914F0804FAD
:1002400004D04042C1F1000138BF491E14F0004FF4
:1002500004D05242C3F1000338BF5B1E10BD000042
:100260000FB4044910B503AA029800F0F1F910BCCC
:100270005DF814FB400000202DE9F0410646002403
:1002800010687529314616A510D0AFF300800028FC
:1002900002DA404213A507E031688A0701D512A5AA
:1002A00002E0490704D511A5012401E0AFF3008065
:1002B00000210A2206F1240709E0B0FBF2FCB0FBA2
:1002C000F2F302FB1C00303078541846491C002819
:1002D000F3D123462A463046BDE8F04100F05EB92E
:1002E000000000002D0000002B0000002000000096
:1002F0002DE9F05F894604464FF0000ADFF824B18B
:10030000FB44C0F820A02046E168884700287DD043
:10031000252806D0D4E901219047206A401C20629C
:10032000F1E700255F462046E16888472028064619
:1003300007DB312E05D2B81910F8200C08B105439F
:10034000F1E7A80701D525F00405C4F81CA0002793
:10035000C4F818A02A2E09D0304601F07DFE38B32B
:1003600004EB8708303EC8F8186019E059F8041B00
:10037000204604EB87029161E1688847012F064619
:1003800018D1E069002820DA25F020051DE0D8F812
:10039000180000EB800006EB40003038C8F8180069
:1003A0002046E1688847064601F056FE0028EED157
:1003B000012F0AD02E2E08D12046E16888477F1CE5
:1003C0000646022F45F02005C4DBA069002803DAA9
:1003D000404245F00105A061E80701D025F0100575
:1003E000A6B1A6F14100192802D8203645F40065CF
:1003F0004A463146204625604D46FFF7D3FE60B1A0
:10040000012807D0ED1D25F0070000E007E000F10E
:10041000080978E705F1040975E730467AE7206AAC
:10042000BDE8F09F218E000040EA010310B59B0754
:100430000FD1042A0DD310C808C9121F9C42F8D04E
:1004400020BA19BA884201D9012010BD4FF0FF30FF
:1004500010BD1AB1D30703D0521C07E0002010BD15
:1004600010F8013B11F8014B1B1B07D110F8013BA1
:1004700011F8014B1B1B01D1921EF1D1184610BD82
:1004800002F0FF0343EA032242EA024200F0F4B81A
:10049000704770477047704753EA020C00F069805C
:1004A0002DE9F04B4FF00006002B1FBFB3FA83F588
:1004B00003FA05F424FA05F65E4012BF1643B2FAB9
:1004C00082F502FA05F4C5F120051EBF22FA05FCEB
:1004D00044EA0C04203556EA044C4FEA144418BF91
:1004E000641C4FF000084FF00009904271EB030CC0
:1004F00039D3002919BFB1FA81F701FA07F6B0FA2A
:1005000080F700FA07F6C7F120071EBF20FA07FCA4
:1005100046EA0C062037B6FBF4FCA7EB0507103FB4
:1005200007F01F0BCBF120060CFA0BFB2CFA06F69A
:1005300044BFB3460026202FA4BF5E464FF0000BF9
:100540005BEA060C08BF4FF0010B19EB0B09ABFB84
:10055000027C48EB0608C01B06FB02CC0BFB03CC5D
:1005600071EB0C01C1E70B46024641464846BDE827
:10057000F08B13B54FF000004FF00001AFF3008097
:10058000BDE81C40704710B500F096F8006810BD3B
:1005900010B5044600F090F8046010BD2DE9F04756
:1005A0000D4699469246044600F1240801688806E3
:1005B00004D5E06921F01001216000E00120A8428B
:1005C00001DD471B00E00027A1697A1902EB090051
:1005D000081AA0612078C00602D42046AFF300803C
:1005E000002608E0D4E901211AF806009047206AA5
:1005F000401C761C20624E45F4DB2078C0060AD5EC
:100600002046AFF3008006E0D4E901213020904776
:10061000206A401C2062381EA7F10107F4DC07E0C5
:10062000D4E9012118F805009047206A401C206297
:10063000281EA5F10105F3DC2046AFF300802078E9
:10064000000602D50220BDE8F0870120FBE700008C
:10065000074B70B50D467B4400F037F8044628463A
:1006600000F046F810B14FF0FF3070BD204670BD6D
:100670007B2E00004FF000020429C0F0128010F021
:10068000030C00F03B80CCF1040CBCF1020F18BF4E
:1006900000F8012BA8BF20F8022BA1EB0C0100F001
:1006A0002DB85FEAC17C24BF00F8012B00F8012BB4
:1006B00048BF00F8012B704700487047B400002085
:1006C00001694A1C02610878704700B58FB0CDE916
:1006D00001310021059105497944CDE90310114606
:1006E0006846FFF705FE0FB000BD0000E5FFFFFF05
:1006F000007B00F0800070474FF0000200B5134609
:1007000094469646203922BFA0E80C50A0E80C5031
:10071000B1F12001BFF4F7AF090728BFA0E80C50E2
:1007200048BF0CC05DF804EB890028BF40F8042BDB
:1007300008BF704748BF20F8022B11F0804F18BF48
:1007400000F8012B7047000000487047B4000020FB
:100750007546FFF7F9FFAE4605006946534620F09F
:100760000700854618B020B5FFF742FDBDE82040E0
:100770004FF000064FF000074FF000084FF0000B5D
:1007800021F00701AC46ACE8C009ACE8C009ACE810
:10079000C009ACE8C0098D46704710B50446AFF3F8
:1007A00000802046BDE81040FFF70EBD21B18268F1
:1007B00042F00102826003E0826822F0010282605E
:1007C0007047000010B504461248844208D1012148
:1007D000401501F0D1F90021601501F0CDF917E0C5
:1007E0000D48844208D10121001501F0C5F900210E
:1007F000201501F0C1F90BE00848844208D101211D
:10080000C80301F0B9F900214FF4004001F0B4F938
:1008100010BD00000024014000280140003C0140C0
:10082000014600208A6802F004020AB1012000E0BB
:10083000002070470146C86C80B270470246002015
:1008400013680B400BB1012000E000207047014607
:1008500000208A6802F008020AB1012000E00020AE
:100860007047000030B502460020002350680F4C4E
:1008700020400D790C6844EA0524204350609068BC
:100880000B4C2040D1E902542C434D7944EA4504F5
:1008900020439060D06A20F470000C7C641EE4B2A7
:1008A000234340EA0350D06230BD0000FFFEF0FF5A
:1008B000FDF7F1FFF0B504460D4600200021092D9B
:1008C00011DDE068A5F10A0606EB4607072606FAE1
:1008D00007F18843A5F10A0606EB460603FA06F17E
:1008E0000843E0600CE0206905EB4507072606FA9F
:1008F00007F1884305EB450603FA06F1084320613A
:10090000072A0FDA606B561E06EB86071F2606FACB
:1009100007F18843561E06EB860605FA06F10843E2
:10092000606322E00D2A0FDA206BD61F06EB8607E4
:100930001F2606FA07F18843D61F06EB860605FA3E
:1009400006F10843206310E0E06AA2F10D0606EB11
:1009500086071F2606FA07F18843A2F10D0606EB6B
:10096000860605FA06F10843E062F0BD816841F0B1
:1009700008018160704721B1826842F4A002826060
:1009800003E0826822F4A00282607047816841F02F
:10099000040181607047000000B587B001214FF469
:1009A000047001F0D9F84FF4004001F0B9F80F20BD
:1009B000ADF8040000208DF8070001A9174800F0E9
:1009C00035F91748FFF7FEFE002002908DF80C0065
:1009D0008DF80D004FF46020049000200590012058
:1009E0008DF8180002A90E48FFF73CFF01210C48C2
:1009F000FFF7DCFE0A48FFF7B9FF00BF0848FFF722
:100A000026FF0028FAD10648FFF7C0FF00BF0448C0
:100A1000FFF706FF0028FAD107B000BD0010014023
:100A20000024014008B50121082001F095F80121BA
:100A3000084601F091F80121094800F083F91020DF
:100A4000ADF800008DF8030003208DF80200694620
:100A5000044800F0EBF81021024800F0C4F908BD8A
:100A600000023000000C014000BFFEE770470000AC
:100A70002DE9FF5F86B014461D464FF0010A0020A5
:100A80000390049005904FF00109002600BF8346B3
:100A9000002213462046294604F096FD09D285F02F
:100AA0000040CDE900402046019904F019FD0646BA
:100AB00004E02046294604F013FD0646304604F0C3
:100AC0006CFD22462B46CDE9000104F0B7FE074637
:100AD00088460022544B3846414604F0B1FDCDE92A
:100AE000000104F02DFD834607E009EB89004FEA81
:100AF00040090AF1010000F0FF0A0A2096FBF0F01D
:100B000090FBF9F00028F0D142F2107096FBF0F063
:100B10000A2190FBF1F201FB1200C0B28DF80C002B
:100B20004FF47A7096FBF0F090FBF1F201FB1200AB
:100B3000C0B28DF80D00642096FBF0F090FBF1F24E
:100B400001FB1200C0B28DF80E000A2096FBF0F0F7
:100B500090FBF1F201FB1200C0B28DF80F000A20E9
:100B600096FBF0F100FB1160C0B28DF810002E2052
:100B70008DF811004FF47A70BBFBF0F00A21B0FB46
:100B8000F1F201FB12008DF812006420BBFBF0F0C3
:100B9000B0FBF1F201FB12008DF813000A20BBFB41
:100BA000F0F0B0FBF1F201FB12008DF814000A2006
:100BB000BBFBF0F100FB11B08DF81500002114987B
:100BC000801D03AA1154894608E003A810F8090003
:100BD000303003A901F8090009F10109B9F10A0F40
:100BE000F3DB002213462046294604F0EDFC08D230
:100BF0000AF1010000F0FF0A2D20CAF1050103AA45
:100C000050542E208DF8110000211498801D03AA45
:100C10001154CAF1050003A94218DDE9061000F0DD
:100C200055FD0AB0BDE8F09F0088C3402DE9F041B2
:100C3000024600250026002000230024002791F80A
:100C400003C00CF00F0591F803C00CF0100CBCF1C0
:100C5000000F03D091F802C04CEA050591F800C0DE
:100C6000BCF1000F31D0146800202BE04FF0010CD4
:100C70000CFA00F3B1F800C00CEA03069E4220D142
:100C800083004FF00F0C0CFA03F7BC4305FA03FC8A
:100C90004CEA040491F803C0BCF1280F06D14FF0D0
:100CA000010C0CFA00FCC2F814C00AE091F803C071
:100CB000BCF1480F05D14FF0010C0CFA00FCC2F852
:100CC00010C0401C0828D1D31460B1F800C0BCF19A
:100CD000FF0F34DD546800202EE000F1080C4FF0C7
:100CE000010808FA0CF3B1F800C00CEA03069E42B2
:100CF00021D183004FF00F0C0CFA03F7BC4305FA27
:100D000003FC4CEA040491F803C0BCF1280F05D1A0
:100D100000F1080C08FA0CF8C2F8148091F803C02E
:100D2000BCF1480F07D100F1080C4FF0010808FA98
:100D30000CF8C2F81080401C0828CED35460BDE8DF
:100D4000F0810000F0B50A460023002400210025B0
:100D500000F00046B6F1004F02D11D4EF16901E0EE
:100D60001B4E7168C0F3034583B200F44016B6F51C
:100D7000401F08D121F07061154E766826F070662C
:100D8000134F7E6012E000F48016B6F5801F06D186
:100D9000032606FA05F4A14341F0706106E0460D12
:100DA000360103FA06F6B14341F0706122B1460DF7
:100DB000360103FA06F6314300F00046B6F1004F63
:100DC00002D1034EF16101E0014E7160F0BD0000FF
:100DD000000001400246002093680B400BB1012047
:100DE00000E00020704741617047016170470000DA
:100DF00010B504460723012221460948FFF75AFD92
:100E000001210748FFF7B7FD00BF02210448FFF7A3
:100E100015FD0028F9D00248FFF70CFD10BD0000B9
:100E2000002401402DE9F04107460C46002500262C
:100E300008E03846FFF7DCFF0544052001F024FDFB
:100E4000701CC6B2A642F4DBB5FBF4F080B2BDE87C
:100E5000F08100BFFEE7000008B50121182000F076
:100E60007BFEB020ADF8000048208DF803006946F5
:100E70000148FFF7DBFE08BD001001402DE9FC41F1
:100E800004460D4616466B4606223B21682000F0BC
:100E90001FFA0746BFB99DF801009DF8001040EA0F
:100EA000012000B220809DF803009DF8021040EA66
:100EB000012000B228809DF805009DF8041040EA4A
:100EC000012000B230803846BDE8FC812DE9FC41AC
:100ED00004460D4616466B4606224321682000F064
:100EE000F7F90746BFB99DF801009DF8001040EAE8
:100EF000012000B220809DF803009DF8021040EA16
:100F0000012000B228809DF805009DF8041040EAF9
:100F1000012000B230803846BDE8FC812DE9F84F51
:100F20006B4602224121682000F0D2F99DF80100B1
:100F30009DF8001040EA01200FFA80FA504604F0B4
:100F40002CFB804600220B4B04F072F906460A4A3D
:100F50000A4B04F0B1F8044604F07CF883460849D3
:100F6000584605F073F8044604F0D4FF00B2BDE81B
:100F7000F88F000000407540A4703D0AD7434240FE
:100F80000000C84210B500200E4908600E480068F5
:100F900020F470400C4908600846006840F4405056
:100FA000086000200949C1F8AC0100F011F80120E7
:100FB0000449086000F00CF800200449C1F8A801B9
:100FC00010BD0000A8812142040C01400080214294
:100FD00010B5022001F07EFC10BD000008B5012113
:100FE000082000F0B9FD4FF44060ADF8000010207B
:100FF0008DF8030003208DF8020069460448FFF7CE
:1010000015FE4FF440610248FFF7EFFE08BD0000F7
:10101000000C014010B500200E4908600E48006821
:1010200020F470400C4908600846006840F44050C5
:10103000086001200949C1F8AC01FFF7C9FF012090
:1010400004490860FFF7C4FF00200449C1F8A80163
:1010500010BD0000A8812142040C01400080214203
:1010600070B5054600241648006820F47040144905
:1010700008600846006840F400400860002614E05C
:10108000002010490860FFF7A3FF01200E49C1F8B6
:10109000A8016006040E0B487C38006808B1601C8B
:1010A000C4B2FFF795FF701CC6B2082EE8DB15B975
:1010B000FFF7B0FF01E0FFF765FF204670BD0000BD
:1010C000040C0140A88121420080214270B50446F1
:1010D0001248006820F47040104908600846006813
:1010E00040F44050086000200D490860002512E0DF
:1010F000E0090B49091D08606006040E012009493A
:10110000C1F8A801FFF764FF002005490860FFF758
:101110005FFF681CC5B2082DEADB70BD040C0140FE
:10112000A88121420080214210B50E48006820F4B9
:1011300070400C4908600846006840F44050086060
:101140000120094908600949C1F8A801FFF740FFDB
:10115000002005490860FFF73BFF00200349C1F864
:10116000A80110BD040C0140AC8121420080214245
:1011700010B50E48006820F470400C49086008461D
:10118000006840F44050086000200949086009499F
:10119000C1F8AC01FFF71CFF0120054908600549B3
:1011A000C1F8AC01FFF714FF10BD0000040C0140B2
:1011B000A88121420080214210B500241448006813
:1011C00020F47040124908600846006840F400406E
:1011D000086001200F490860FFF7FAFE01200E4960
:1011E000C1F8A801FFF7F4FE07E0601CC4B2FA2CB6
:1011F00003DDFFF7BDFF012010BD06488038006801
:101200000028F2D10349091F086000BFF4E700007D
:10121000040C0140AC8121420080214210B5FFF74F
:10122000DDFE80216B2000F0D7F8642001F02CFB5C
:1012300000216B2000F0D0F8032000F08BF8002094
:1012400000F080F8322000F0AAF80021382000F0E9
:10125000C3F800216A2000F0BFF80021232000F02D
:10126000BBF88021372000F0B7F8752000F013F8A4
:101270000446682C0BD101216B2000F0ADF8002151
:101280006C2000F0A9F8322000F089F801E001207C
:1012900010BD0020FCE770B50446FFF745FFD020E5
:1012A000FFF714FFFFF788FF2046FFF70FFFFFF758
:1012B00083FFFFF739FFD120FFF708FFFFF77CFF1F
:1012C0000020FFF7CDFE0546FFF752FF284670BD10
:1012D0002DE9F04106460F4614461D46FFF724FF50
:1012E000002141EA4601C8B2FFF7F0FEFFF764FFB4
:1012F00020B1FFF73DFF0120BDE8F0813846FFF740
:10130000E5FEFFF759FFFFF70FFF012101EB460153
:10131000C8B2FFF7DBFEFFF74FFF0DE0012C04D151
:101320000020FFF79DFE287003E00120FFF798FEE4
:101330002870601EC4B26D1C002CEFD1FFF718FF9F
:101340000020D9E710B50446E006010E1C2000F08D
:1013500043F810BD10B50446E006010E1B2000F056
:101360003BF810BD70B504460025BC2C01DB0125FF
:1013700010E0622C01DB02250CE02A2C01DB0325A6
:1013800008E0142C01DB042504E00A2C01DB052510
:1013900000E0062529461A2000F01EF870BD70B541
:1013A0000446B4F57A7F01DD4FF47A74042C00DA38
:1013B00004244FF47A7090FBF4F0401EC5B2294625
:1013C000192000F009F80546264604EBD671C1F352
:1013D0004F00FFF7C7FF70BD70B505460C46FFF71D
:1013E000A3FED020FFF772FEFFF7E6FE18B1FFF76D
:1013F000BFFE012070BD2846FFF768FEFFF7DCFE48
:101400002046FFF763FEFFF7D7FE18B1FFF7B0FEE7
:101410000120EFE7FFF7ACFE0020EBE72DE9F041FC
:1014200005460E4617469846FFF77EFE002141EA24
:101430004501C8B2FFF74AFEFFF7BEFE20B1FFF735
:1014400097FE0120BDE8F0813046FFF73FFEFFF731
:10145000B3FE00240CE018F80400FFF737FEFFF796
:10146000ABFE18B1FFF784FE0120EBE7601CC4B2AD
:10147000BC42F0DBFFF77CFE0020E3E700BFFEE7A5
:101480007047000070B5002100230F22C47804B318
:10149000154C246804F4E064C4F5E064210AC1F149
:1014A0000403CA40447804FA03F1847814402143C9
:1014B00009010E4C0678A155047804F01F0501249B
:1014C000AC4005786D11AD0005F1E025C5F800418F
:1014D00009E0047804F01F050124AC40044D0678AF
:1014E000761145F8264070BD0CED00E000E400E008
:1014F00080E100E002490143024A116070470000A8
:101500000000FA050CED00E070B5002419E004F1CC
:10151000B001C8B2002100F0FBF90021084600F03C
:10152000F7F90021102000F0F3F9002505E0012172
:10153000002000F0EDF9681CC5B2802DF7DB601CBF
:10154000C4B2082CE3DB70BD07E040F2375100BFA6
:101550000A1EA1F10101FBD1401E0028F5D1704700
:1015600070B50646002415E004F1B001C8B200F0E1
:10157000FFF9012000F0FCF9102000F0F9F9002536
:1015800004E0304600F024FA681CC5B2802DF8DB78
:10159000601CC4B2082CE7DB70BD000008B5012157
:1015A000084600F0D9FA01214648FFF7CBFB01219C
:1015B000082000F0D1FA4FF47070ADF8000003205D
:1015C0008DF8020010208DF8030069463E48FFF7B1
:1015D0002DFB4FF400713C48FFF707FC80213A488F
:1015E000FFF701FC3220FFF7AFFF80213648FFF7FD
:1015F000FCFB0021AE2000F057F90021D52000F0BF
:1016000053F90021802000F04FF90021A82000F0BC
:101610004BF900213F2000F047F90021D32000F0D2
:1016200043F90021084600F03FF90021402000F076
:101630003BF900218D2000F037F90021142000F043
:1016400033F90021202000F02FF90021022000F0C2
:101650002BF90021A12000F027F90021C82000F07B
:1016600023F90021DA2000F01FF90021122000F0F8
:101670001BF90021812000F017F90021EF2000F074
:1016800013F90021D92000F00FF90021F12000F01A
:101690000BF90021DB2000F007F90021402000F0C9
:1016A00003F90021A42000F0FFF80021A62000F09B
:1016B000FBF80021AF2000F0F7F80020FFF750FF03
:1016C00008BD000000023000000C01402DE9F04789
:1016D00006460F46904600250024A14631E018F842
:1016E00009002038C5B2782E02DD0026781CC7B26A
:1016F0003946304600F02EF8002407E004EB0511CF
:10170000134A505C00F064F9601CC4B2082CF5DB8D
:10171000781CC1B2304600F01DF8002408E004EB4C
:10172000051108310A4A505C00F052F9601CC4B23D
:10173000082CF4DB06F10800C6B209F1010000F044
:10174000FF0918F809000028C9D1BDE8F08700009A
:101750008373000870B504460D4605F1B001C8B2A8
:1017600000F006F9102141EA141000F001F904F02C
:101770000F0000F0FDF870BD70B504460D4605F190
:10178000B001C8B2002100F0C3F8102141EA1410E2
:10179000002100F0BDF804F00F0141F0010000212C
:1017A00000F0B6F870BD00002DE9F04107460E4686
:1017B000154631463846FFF7DFFF002408E0104A9F
:1017C00002EB8511085D012100F0A2F8601CC4B293
:1017D000102CF4DB701CC1B23846FFF7CDFF00249B
:1017E0000AE06900491C064A02EB4111085D01212B
:1017F00000F08EF8601CC4B2102CF2DBBDE8F08162
:10180000737D00082DE9F04107460E469046A8F189
:101810002000C5B27F2F02DD0027B01CC6B23146C2
:101820003846FFF7A9FF002408E004EB05110F4A32
:10183000505C012100F06CF8601CC4B2082CF4DB91
:10184000701CC1B23846FFF797FF002409E004EB93
:1018500005110831054A505C012100F059F8601C5F
:10186000C4B2082CF3DBBDE8F081000083730008EC
:101870002DE9F04104460F46154600260EE0AA5D0C
:1018800039462046FFF7BEFF04F10800C4B2782CA9
:1018900002DD0024B81CC7B2701CC6B2A85D0028C7
:1018A000EDD1BDE8F081000070B504460E4626B1CA
:1018B00040211648FFF799FA03E040211348FFF74B
:1018C00092FA00251BE04FF400711048FFF78BFAE5
:1018D00004F0800028B14FF480710C48FFF785FABE
:1018E00004E04FF480710948FFF77DFA4FF400716E
:1018F0000648FFF77AFA6006040E681CC5B2082D88
:10190000E1DB40210148FFF770FA70BD000C014097
:1019100070B504460E4626B140211448FFF765FA1B
:1019200003E040211148FFF75EFA00251BE04FF469
:1019300000710E48FFF757FA04F0800028B14FF409
:1019400080710A48FFF751FA04E04FF480710748AC
:10195000FFF749FA4FF400710448FFF746FA6006B2
:10196000040E681CC5B2082DE1DB70BD000C0140FF
:1019700070B50446082540211448FFF734FAA90140
:101980001248FFF730FA00BF1AE004F0800028B1D7
:101990004FF480710D48FFF728FA04E04FF480718E
:1019A0000A48FFF720FA4FF400710848FFF71DFAC4
:1019B00000BF4FF400710548FFF715FA6006040EEA
:1019C000281EA5F10101CDB2DFD170BD000C014090
:1019D00070B50446082540211548FFF706FA00BFF8
:1019E0004FF400711248FFF7FEF900BF1AE004F04F
:1019F000800028B14FF480710D48FFF7F6F904E03C
:101A00004FF480710A48FFF7EEF94FF4007108486F
:101A1000FFF7EBF900BF4FF400710548FFF7E3F95A
:101A20006006040E281EA5F10101CDB2DFD170BD04
:101A3000000C014038B5042200211B20FFF7B4FE42
:101A4000052200212D20FFF7AFFE062200213F20B6
:101A5000FFF7AAFE072200215120FFF7A5FE20A2D2
:101A600002210020FFF704FF1FA204210020FFF73E
:101A7000FFFE1FA206210020FFF7FAFE1E48B0F964
:101A8000000003F08AFD0446022022460B4647214F
:101A90000090FEF7EDFF1948B0F9000003F07DFD5E
:101AA0000446022022460B46472100900420FEF700
:101AB000DFFF13480079012806D11249087012A2ED
:101AC00006213C20FFF7D4FE0D48007938B90020EC
:101AD0000C4908700EA206213C20FFF7C9FE38BD54
:101AE0004144322F533A00004144332F4D3A000015
:101AF0006D6F64653A0000001B0000201C00002090
:101B0000480000206A00002072656D6F7465000057
:101B1000696E6672617265640000000070470000C3
:101B200001460020034A506820F4404008435060BA
:101B3000704700000010024029B1064AD2690243F2
:101B4000044BDA6104E0034AD2698243014BDA6153
:101B5000704700000010024029B1064A9269024312
:101B6000044B9A6104E0034A92698243014B9A61F3
:101B7000704700000010024029B1064AD2680243B3
:101B8000044BDA6004E0034AD2688243014BDA6016
:101B90007047000000100240704770B506460C46C2
:101BA00000250DE000BF4021304600F097F90028E5
:101BB000F9D02178304600F0CDF9641C681CC5B21C
:101BC000052DEFD1002570BD10B500F001F810BD56
:101BD0000CB50020019000903348006840F480303C
:101BE0003149086000BF3048006800F400300090C0
:101BF0000198401C0190009818B90198B0F5A06FA9
:101C0000F1D12948006800F4003010B101200090A3
:101C100001E0002000900098012843D1234800688B
:101C200040F01000214908600846006820F00300D9
:101C300008600846006840F0020008601A484068E2
:101C4000194948600846406848600846406840F4C2
:101C5000806048600846406820F47C104860084670
:101C6000406840F4E81048600846006840F0807022
:101C7000086000BF0C48006800F000700028F9D030
:101C80000948406820F0030007494860084640685A
:101C900040F00200486000BF0348406800F00C00BC
:101CA0000828F9D10CBD00000010024000200240BD
:101CB000042808D14FF0E021096941F004014FF0F8
:101CC000E022116107E04FF0E021096921F00401F1
:101CD0004FF0E022116170477047000010B51348C3
:101CE000006840F00100114908600846406810494A
:101CF00008400E494860084600680E4908400B49F4
:101D000008600846006820F48020086008464068A3
:101D100020F4FE0048604FF41F008860FFF754FF76
:101D20004FF000600449086010BD00000010024040
:101D30000000FFF8FFFFF6FE08ED00E0704700002E
:101D400010B50121084800F04EF858B101210648AD
:101D500000F03AF800F0DEF900F00EFD0349044807
:101D6000FFF71BFF10BD00000008004048000020E6
:101D7000003801407FB505460C4601210420FFF7DD
:101D8000DBFEADF80850ADF804400020ADF80A00C5
:101D9000ADF8060001A90B4800F040F81E208DF8B0
:101DA000000002208DF801008DF8020001208DF85E
:101DB00003006846FFF766FB01221146014800F068
:101DC00023F87FBD00080040CA430282704721B15A
:101DD000028842F00102028004E002884FF6FE739E
:101DE0001A400280704730B50246002000230024CC
:101DF000158A05EA0103958905EA010413B10CB1BE
:101E0000012000E0002030BD1AB183890B4383819B
:101E100002E083898B43838170470000002202889F
:101E20001D4B98420ED01D4B98420BD0B0F1804F05
:101E300008D01B4B984205D01A4B984202D01A4B3F
:101E4000984204D14FF68F731A404B881A43174BB0
:101E5000984207D0164B984204D04FF6FF431A40E1
:101E6000CB881A4302808B8883850B8803850A4BB5
:101E700098420BD0094B984208D00E4B984205D09F
:101E80000D4B984202D00D4B984201D10B7A03863C
:101E90000123838270470000002C01400034014080
:101EA0000004004000080040000C0040001000400A
:101EB000001400400040014000440140004801403F
:101EC00010B540F22551044800F015F818B1024849
:101ED00000F03BF8C4B210BD0038014002460020BB
:101EE000B1F5007F00D100BF13880B400BB101207A
:101EF00000E00020704770B5024600240023002552
:101F0000002040F66A16B14200D100BFC1F342156D
:101F100001F01F03012606FA03F3012D02D1968971
:101F2000334006E0022D02D1168A334001E0968A42
:101F300033400C12012606FA04F41688344013B11B
:101F40000CB1012000E0002070BD01468888C0F37C
:101F500008007047C1F308028280704700BFFEE7A7
:101F6000490050EAC12018BF04204A0D18BF40F0B4
:101F7000010040F2FF72B2EB515F08BF40F0020077
:101F8000012808BF052070472DE9F0414F1E00EBE6
:101F9000C7010446D1E9000115461E4637F0060286
:101FA0000DD02A46334603F04BFB7F1E04EBC703DC
:101FB000D3E9002303F080F837F00602F1D1022FB5
:101FC00025D0042F13D0062F18BFBDE8F0812A4674
:101FD000334603F035FBD4E90A2303F06DF82A46B3
:101FE000334603F02DFBD4E9082303F065F82A46B5
:101FF000334603F025FBD4E9062303F05DF82A46B7
:10200000334603F01DFBD4E9042303F055F82A46B8
:10201000334603F015FBD4E9022303F04DF82A46BA
:10202000334603F00DFBD4E90023BDE8F04103F093
:1020300043B8012204F0AFB903F03EB800221346C2
:102040001046114603F0F4B8024A0020110704F0CC
:10205000A2B9000001FDFFFF30380A2801D201209B
:10206000704700207047014600BF70472DE9FE4FC2
:1020700006460F460025684601F03AFA002442E081
:1020800056F8240057F82410A0EB010ABAF1000F0B
:1020900001DB514601E0CAF10001084603F076FF7A
:1020A00083464FF08F4103F03FFE80465DF82400E9
:1020B000002103F0FBFE16D05DF82410404603F02B
:1020C00033FE82464FF07E5104F0BEF8814629F07F
:1020D000004A0F48416A504604F084F812D20120A9
:1020E000A04005430EE00A48C169404603F07AFF6C
:1020F00005D30748016A404604F074F802D2012073
:10210000A0400543641C032CBADB2846BDE8FE8FC3
:102110004C64000810B50A4A0A490B4801F0EEFD6C
:1021200068B9FEF7FBFE09490880094A09490A48CF
:10213000FEF7A4FE094A0A490A48FEF7C7FE10BD89
:1021400008000020040000200000002018000020EB
:10215000100000200E0000200C00002016000020BF
:1021600014000020120000202DE9F04D8D4F21F0C9
:10217000004A86B005460C46BA452ADBAAEB0700A2
:1021800028430AD08848824501DC1AD1CDB106B077
:102190002846BDE8F04DFFF74CBF844A844B2846E3
:1021A00003F04EFA07460E46824A834B28462146E4
:1021B00003F046FA06B03A463346BDE8F04D02F069
:1021C0007BBF0120FEF7E4F906B0BDE8F04DFFF754
:1021D00035BF7A48824542DABAF1795F0BDA284690
:1021E000FFF7BEFE042808BFFFF72EFF284606B003
:1021F0002146BDE8F08D2A460B46104603F020FA32
:10220000834602466E480E460B4606217844FFF789
:10221000BBFE5A46334603F013FA804669488A46A5
:102220005A46334604217844FFF7AEFE5A463346F9
:1022300003F006FA00223B4602F03EFF02460B4640
:102240004046514602F0F4FF2A46234603F0F8F9CF
:1022500006B02A462346BDE8F04D02F02DBF2846C1
:1022600024F0004100223D463B4603F0E7FA4FF0E0
:10227000FF3204F090F80646024653480F460B46DC
:1022800006217844FFF780FE32463B4603F0D8F93A
:10229000CDE900014D4832463B4604217844FFF722
:1022A00073FE32463B4603F0CBF900222B4602F088
:1022B00003FF834602913046394602F0A5FE804670
:1022C00043480D46504517DCDDE900015A46029BA4
:1022D00002F0AEFF42462B4603F0B2F942462B46CF
:1022E00002F0EAFE012204F056F8304A304B03F0C7
:1022F00097FB304A304B4CE04FF0000A52460B46F9
:10230000404602F0D9FECDE9031052462B46104656
:10231000194603F095F932463B4603F08FFADDE9A2
:10232000033202F085FF06460F46DDE900015A46FA
:10233000029B02F07DFF8346009101223046394620
:1023400004F029F8194A1A4B03F078FA06460F46AA
:1023500001224046294604F01EF85A46009B03F02D
:102360006FF932463B4603F05BFB06460F460122FF
:102370005046294604F00FF80E4DDFF858802A46E3
:10238000434603F05BFA32463B4603F057FA2A46CF
:10239000434603F053FA002CD8BF81F0004106B049
:1023A000BDE8F08D0000F03F0000F07F075C1433C3
:1023B00026A6913C182D4454FB21F93F0000E03F34
:1023C000286F00003E6F0000B26E0000C86E000073
:1023D0003333EF3FFB21E93F2DE9F84F04460D462B
:1023E00021F0004000917349814211DC724988421A
:1023F00001DC06D12CB120462946BDE8F84FFFF795
:1024000018BE6E48002DCCBF6D496E49BDE8F88FEF
:102410006D49814211DD6D498142D8BF4FF0FF36D1
:102420006DDD20462946FFF79BFD042808BFFFF716
:102430000BFE20462946BDE8F88F6549654F25F01B
:102440000045814233DD6449814219DD0026324670
:102450004FF080432046294602F02EFE80468A46F1
:1024600001222046294603F096FF00223B4603F056
:10247000D7FA4246534602F0DBFE04460D463EE0E4
:1024800001260022BA463B462046294602F014FEA9
:1024900080460F46002253462046294603F0C0FAE4
:1024A00042463B4602F0C4FE04460D4627E04B4937
:1024B00081421BDDDFF828A1022600225346204678
:1024C000294603F0BDF800223B4602F0F5FD8046A8
:1024D0000F46002253462046294603F0A1FA424601
:1024E0003B4602F0A5FE04460D4608E003262246C0
:1024F0002B4600203B4902F09BFE04460D46224637
:102500002B461046194603F09BF88B46824602463E
:102510000B4603F095F807460246334888460B46BB
:1025200006217844FFF730FD52465B4603F088F8F9
:1025300082462E488B463A46434605217844FFF7AB
:1025400023FD3A46434603F07BF802460B46002E35
:10255000504659460CDA02F0AFFD22462B4603F0F6
:102560006FF801B022462B46BDE8F04F03F066B984
:1025700002F0A2FD22462B4603F062F81C4A7A4480
:1025800002EBC603D3E9002303F04AFA22462B46A6
:1025900003F046FA174A7A4402EBC603D3E9002354
:1025A00003F04CF9009A002AB8BF81F00041BDE861
:1025B000F88F0000000010440000F07F182D4454F4
:1025C000FB21F93FFB21F9BF0000DC3F0000203E6A
:1025D0000000F33F0000F03F0000E63F00800340B2
:1025E0000000F83F0000F0BFCA6C0000886C0000DB
:1025F000266C0000EE6B00002DE9F04D9446CCF106
:10260000000423F000464CEA0404524F46EAD47416
:102610009A46884621F00042BC4206D8454240EA2C
:10262000050442EAD474BC4204D9BDE8F04D6246C8
:10263000FFF702BDAAF14055A5F17F6555EA0C04EC
:102640000BD0022404EAAA74434DDFF810E144EAF7
:10265000D87452EA000B04D00CE0BDE8F04DFFF74F
:10266000BBBE002C14BF012CBDE8F08D022C30D075
:10267000032C32D056EA0C0B0AD0BE4220D1BA420B
:1026800009D126F0804622F080423346114617E0F9
:1026900000291ADB25E0DFF8C8B0FB44002C04BF9A
:1026A000DBE90001BDE8F08D012C02BFDBE9000190
:1026B00081F00041BDE8F08D022C0AD0032C0CD033
:1026C000BA4212D1B8F1000F0BDA23482549BDE810
:1026D000F08D28462449BDE8F08D28467146BDE8B6
:1026E000F08D1D482149BDE8F08D921B12153C2A42
:1026F000C4BF19481D490EDCBAF1000FBEBF12F16C
:102700003C0F0020014606DB624602F091FD21F0FD
:102710000041FFF761FE002C08BFBDE8F08D012CE1
:1027200004BF81F00041BDE8F08D114A114B022C2D
:1027300007D003F075F92A46BDE8F04D0A4B03F0C7
:102740006FB903F06DF92A46BDE8F04D064B03F072
:1027500075B800000000F07F182D4454FB2109C01B
:10276000826B0000FB21F9BFFB210940FB21F93FEF
:10277000075C143326A6A13C10B50024AA222146EA
:10278000641C1348425455222146641C425411488B
:1027900002782146641C0E4842540F4802782146B4
:1027A000641C0B48425410210C48FEF713FB28B957
:1027B00001222046611CCCB205490A542021074859
:1027C000FEF708FB10B900200149087110BD000098
:1027D000480000201C0000201B00002000100140C9
:1027E0002DE9F0410446E07800F0C006E07800F002
:1027F0003F05607800F0010098B1EF102846E91716
:1028000005EB5171C910A5EBC101491C01F0FF088E
:102810000B48006820B10A48414602683846904794
:1028200000BF607800F0080030B10548406818B17A
:10283000B011034A516888470020BDE8F0810000CC
:10284000A400002010B56FF00400FFF731FA0A4829
:1028500000680A49B0FBF1F00949087008460078A1
:1028600000EB4001C1EBC0104FF6FF7101EAC00060
:102870000449088010BD00002800002000127A00E2
:102880003C0000203E0000200146114A12884A43C5
:102890004FF0E0235A6100229A611A46126942F011
:1028A00001021A6100BF4FF0E022106900F001023E
:1028B0001AB100F48032002AF5D04FF0E0221269FC
:1028C00022F001024FF0E0231A6100229A61704762
:1028D0003E0000200146114A12784A434FF0E0239F
:1028E0005A6100229A611A46126942F001021A6185
:1028F00000BF4FF0E022106900F001021AB100F4AD
:102900008032002AF5D04FF0E022126922F0010255
:102910004FF0E0231A6100229A6170473C000020CA
:1029200038B5044664B120208DF8000028208DF8C9
:10293000010030208DF8020038208DF8030004E0FB
:10294000A32204216846FDF79BFD6A46042140F658
:102950009E2002F087FA01F071FE38BD3EB50446B4
:1029600002208DF80000CA208DF80100E3208DF8C8
:10297000020009208DF803006A460421682002F055
:1029800071FAA3208DF8000004F0400048B1C02087
:102990008DF80100C8208DF80200C2208DF80300D8
:1029A00006E0A3208DF801008DF802008DF80300E9
:1029B00004F4C07048B1C4208DF80400CC208DF818
:1029C0000500C6208DF8060006E0A3208DF804005F
:1029D0008DF805008DF80600A3208DF807008DF80E
:1029E00008008DF809006A460A2140F6A72002F087
:1029F00039FA04F0030018B120208DF8000002E03D
:102A0000D8208DF800006A46012140F6B62002F079
:102A100029FA04F0200018B1012000F0ADF802E01E
:102A2000002000F0A9F804F4C07008B304F480702A
:102A300060B1B2208DF800008B208DF80100B62027
:102A40008DF802009B208DF803000BE0B0208DF87C
:102A5000000080208DF80100B4208DF80200902045
:102A60008DF803006A46042140F6A22002F0FAF92C
:102A700004F0010020B3F8208DF800006A4601211F
:102A80004FF40B6002F0EEF9FA21072000F02CFC65
:102A9000072000F0F3FB012000F013FC642000F09D
:102AA000F3FC4FF4FA7000F002FDC821304800F04A
:102AB000A3FB282000F0BCFB0A2000F0CCFB08E0C0
:102AC000D8208DF800006A4601214FF40B6002F017
:102AD000C9F904F0020018B1D9208DF8000002E015
:102AE000D8208DF800006A46012140F23D7002F0C6
:102AF000B9F904F0040018B1012000F069F802E00F
:102B0000002000F065F804F0100018B10120FFF774
:102B100007FF02E00020FFF703FF44F0080015491B
:102B2000488101F08BFD00201249887304F04000B9
:102B300018B10846807B801D887304F4C07020B1F2
:102B40000C48807B801D0B49887304F0140020B171
:102B50000848807B10300749887304F0030020B1D7
:102B60000448807B001D0349887300203EBD00009F
:102B700009E3CA02A40000203EB504466CB10EA1D0
:102B8000D1E900208968CDE9002002916A46092137
:102B90004FF4976002F066F93EBD0AA2D2E9001038
:102BA0009268CDE9010200916A4609214FF49760CD
:102BB00002F058F9F0E70000B8AAB38DB4980D35CB
:102BC0005D000000B8AAAAAAB088C3C5C70000006B
:102BD00038B5044664B1C0208DF80000C2208DF8DD
:102BE0000100C4208DF80200C6208DF8030004E027
:102BF0008B2204216846FDF743FC6A46042140F617
:102C0000982002F02FF901F019FD38BD10B5C82346
:102C10004FF48062024940F6F63001F0A3FB10BD8C
:102C2000746400082DE9F04F8DB0074688461546BC
:102C30009946DDE9166B0024002030806B49887BC3
:102C40005A4605A901F05AFC18B1601E0DB0BDE846
:102C5000F08F6648807A00F01400002867D09DF855
:102C6000140000069DF8151040EA01409DF816106A
:102C700040EA01209DF81710084328609DF81800CD
:102C800000069DF8191040EA01409DF81A1040EA2C
:102C900001209DF81B10084368609DF81C00000689
:102CA0009DF81D1040EA01409DF81E1040EA0120E9
:102CB0009DF81F100843A8609DF8200000069DF8AD
:102CC000211040EA01409DF8221040EA01209DF8C1
:102CD00023100843E86004F11000C4B2286800140F
:102CE0000190686800140290A86800140390E868D6
:102CF0000014049001984043029901FB01000399DC
:102D000001FB0100049901FB010ABAF1706F02DBBB
:102D1000BAF1885F05DD01F091FC00203080401E93
:102D200094E7B6F9000040F48070308000BF2F486F
:102D3000807A00F0400020B305A9601C085C095DA2
:102D400040EA012000B2A8F8000005A9E01C095CD7
:102D500005AAA01C105C41EA002000B2A8F80200FD
:102D600005A9601D095C201D105C41EA002000B22D
:102D7000A8F80400A01DC4B2B6F9000040F0080095
:102D800030801A48408900F4C07008B305A9601C5F
:102D9000085C095D40EA012000B2388005A9E01C0A
:102DA000095C05AAA01C105C41EA002000B27880F2
:102DB00005A9601D095C201D105C41EA002000B2DD
:102DC000B880A01DC4B2B6F9000040F07000308099
:102DD0000648807A00F0030018B105A90819FFF72A
:102DE000FFFC484600F050FF00202FE7A400002021
:102DF00070B588B0064601A801F008F9BDF80400D6
:102E00000021C90341EA5045C4034448007A00F058
:102E1000030056F8200005904048007A00F00400B6
:102E200010B10598404205903C48007AC0F3C100BB
:102E300056F8200006903948007A00F0200010B1C2
:102E40000698404206903548007AC0F3811056F843
:102E5000200007903148008900F4807010B1079875
:102E6000404207900598C117A0FB042301FB0431E1
:102E700000FB0510810041EA927005900698C11789
:102E8000A0FB042301FB043100FB0510810041EA93
:102E9000927006900798C117A0FB042301FB043130
:102EA00000FB0510810041EA927007900598000E22
:102EB0008DF808000598000C8DF809000598000AA7
:102EC0008DF80A000598C0B28DF80B000698000E28
:102ED0008DF80C000698000C8DF80D000698000A7D
:102EE0008DF80E000698C0B28DF80F000798000EFE
:102EF0008DF810000798000C8DF811000798000A53
:102F00008DF812000798C0B28DF8130002AA0C21A8
:102F10004FF4257001F0A6FF08B070BDA40000209A
:102F200030B585B0044616A207CA02AB07C3C82C49
:102F300003DD4FF0FF3005B030BDC82090FBF4F04A
:102F4000401E85B2280A8DF80000E8B28DF8010015
:102F50006A46022140F2162001F084FF10B14FF0C2
:102F6000FF30E8E702AA0C2140F6C12001F07AFF09
:102F700010B14FF0FF30DEE7044884810020DAE72B
:102F8000FEF2ABC4AAF1DFDFBBAFDFDFA40000209D
:102F90001FB504464848007A00F0030054F82000AA
:102FA00001904548007A00F0040010B101984042B9
:102FB00001904148007AC0F3C10054F8200002900B
:102FC0003D48007A00F0200010B102984042029083
:102FD0003948007AC0F3811054F820000390364835
:102FE000008900F4807010B1039840420390334987
:102FF000019880FB0101800F40EA810001902F4978
:10300000029880FB0110820042EA917002902B49E5
:10301000039880FB0110820042EA917003900198AE
:10302000000E8DF800000198000C8DF80100019849
:10303000000A8DF802000198C0B28DF803006A46BC
:1030400004214FF4747001F00DFF18B14FF0FF3000
:1030500004B010BD0298000E8DF800000298000C1C
:103060008DF801000298000A8DF802000298C0B2A3
:103070008DF803006A4604214FF4757001F0F2FEEA
:1030800010B14FF0FF30E3E70398000E8DF8000019
:103090000398000C8DF801000398000A8DF80200D7
:1030A0000398C0B28DF803006A4604214FF476708D
:1030B00001F0D8FECCE70000A400002009E3CA021A
:1030C00010B586B0044647A00068039046A000688B
:1030D000029046A00068019045A00068009004F0AE
:1030E000030003A9085C8DF8140003A8C4F3C10110
:1030F000405C8DF8150003A8C4F38111405C8DF885
:10310000160004F0030002A9085C8DF8100002A864
:10311000C4F3C101405C8DF8110002A8C4F3811111
:10312000405C8DF8120005AA032140F2264001F010
:1031300099FE18B14FF0FF3006B010BD04AA03216C
:1031400040F22A4001F08EFE10B14FF0FF30F3E75D
:10315000019805900098049004F0040058B19DF87F
:10316000140040F001008DF814009DF8100040F0AC
:1031700001008DF8100004F0200058B19DF81500F2
:1031800040F001008DF815009DF8110040F001009D
:103190008DF8110004F4807058B19DF8160040F0CD
:1031A00001008DF816009DF8120040F001008DF826
:1031B000120005AA03214FF4886001F053FE10B1FC
:1031C0004FF0FF30B8E704AA032140F2314001F08C
:1031D00049FE10B14FF0FF30AEE7064804810020F1
:1031E000AAE700004CCD6C000CC92C0036567600C6
:1031F00026466600A4000020F8B505460E464FF4AA
:103200007A7095FBF0F000FB06F4200E8DF80000BC
:10321000200C8DF80100200A8DF80200E0B28DF834
:1032200003006A4604214FF4AE7001F01BFEF8BDA6
:1032300038B50446052094FBF0F084B220128DF8D6
:103240000000E0B28DF801006A4602214FF4AD7033
:1032500001F008FE38BD38B50446052094FBF0F0B7
:1032600084B220128DF80000E0B28DF801006A46A9
:1032700002214FF4AC7001F0F5FD38BD38B50446BD
:103280000020009004F0010020B19DF8000040F003
:103290003000009004F0020020B19DF8000040F0E2
:1032A0000C00009004F0040020B19DF8000040F0F4
:1032B000030000906A4601214FF4A47001F0D2FD92
:1032C00038BD38B50446012C01DA012402E0042C93
:1032D00000DD0424601EC0B200906A46012140F265
:1032E0004F1001F0BFFD38BD2DE9FC4706460F46E3
:1032F00006F0070010B1B7F5C86F03DD4FF0FF30DF
:10330000BDE8FC87384602F059FE8146594902F073
:103310000BFD8046684600F053FE9DF80000022831
:1033200006D0042816D0082826D0102848D135E029
:103330004FF08D41404602F089FE814602F006FEC4
:1033400084B24D49404602F081FE814602F0FEFD06
:1033500085B238E04FF08C41404602F077FE81465E
:1033600002F0F4FD84B24549404602F06FFE81460A
:1033700002F0ECFD85B226E04FF08B41404602F0B2
:1033800065FE814602F0E2FD84B23D49404602F00E
:103390005DFE814602F0DAFD85B214E04FF08A410D
:1033A000404602F053FE814602F0D0FD84B235491A
:1033B000404602F04BFE814602F0C8FD85B202E0B5
:1033C0004FF0FF309CE700BF20128DF80400E0B200
:1033D0008DF8050028128DF80600E8B28DF8070078
:1033E00006F00100A0B101AA02214FF4EA7001F039
:1033F00039FD10B14FF0FF3082E70DF106020221D6
:103400004FF4927001F02EFD10B14FF0FF3077E7CE
:1034100006F00200A0B101AA02214FF4EC7001F005
:1034200021FD10B14FF0FF306AE70DF106020221D5
:103430004FF4947001F016FD10B14FF0FF305FE7CC
:1034400006F00400A0B101AA02214FF4EE7001F0D1
:1034500009FD10B14FF0FF3052E70DF106020221D5
:103460004FF4967001F0FEFC10B14FF0FF3047E7CB
:10347000002045E700004843000040460000C045EA
:10348000000040450000C04438B50446052094FBC8
:10349000F0F085B228128DF80000E8B28DF8010036
:1034A0006A4602214FF4EF7001F0DCFC38BD38B5FC
:1034B0000446052094FBF0F085B228128DF8000038
:1034C000E8B28DF801006A4602214FF4ED7001F078
:1034D000C9FC38BD00BF054A128802F04002002A2C
:1034E000F9D0C2B2014B1B1D1A8070470038014051
:1034F0007CB5054628494968087801AB04220D21AE
:10350000FDF7E6FE08B107207CBD9DF80700C0F37B
:1035100001109DF8041001F0E00140EAE1008DF88F
:1035200000009DF80700C0F381009DF8051001F030
:10353000E00140EAE1008DF801009DF8070000F08D
:1035400003009DF8061001F0E00140EAE1008DF86B
:10355000020000241CE01DF8040018B9002045F802
:10356000240013E00D4845F8240006E055F8240037
:103570000B4902F06BFD45F824001DF80400401EC5
:10358000C0B20DF804000028F0D100BF601CC4B226
:10359000032CE0DB0020B7E76C0000207B14AE3E7C
:1035A0001D5A843F2DE9F04F87B005460C469146E1
:1035B00001208DF8100000208DF81100FE4A1268DD
:1035C000917CFD4A5268107804AB0222FDF726FF79
:1035D00020B14FF0FF3007B0BDE8F08FC820FFF7F3
:1035E00053F900208DF81000F34A1268D17BF24A9B
:1035F0005268107804AB0122FDF710FF10B14FF0B4
:10360000FF30E8E7EC4A12685179EB4A52681078CB
:1036100004AB0122FDF702FF10B14FF0FF30DAE7F3
:10362000E54A1268917CE44A5268107804AB0122A2
:10363000FDF7F4FE10B14FF0FF30CCE7DE4A126820
:10364000D17DDD4A5268107804AB0122FDF7E6FE19
:1036500010B14FF0FF30BEE7D74A12681179D64A51
:103660005268107804AB0122FDF7D8FE10B14FF07C
:10367000FF30B0E70C208DF81000CF4A12681179A6
:10368000CD4A5268107804AB0122FDF7C7FE10B195
:103690004FF0FF309FE70F20FFF7F6F8C648806A2B
:1036A000407A8DF81000C44A12689178C24A526874
:1036B000107804AB0122FDF7B1FE10B14FF0FF30DE
:1036C00089E7BD48806A007A8DF81000BA4A12680E
:1036D0005178B94A5268107804AB0122FDF79EFE7A
:1036E00010B14FF0FF3076E7B9F1000F07D0B248C4
:1036F000806A807A40F0E0008DF8100004E0AE4867
:10370000806A807A8DF81000AB4A12689179AA4AD3
:103710005268107804AB0122FDF780FE10B14FF023
:10372000FF3058E7B9F1000F07D0A348806AC07A8C
:1037300040F0E0008DF8100003E0A048C07A8DF85A
:1037400010009D4A1268D1799B4A5268107804ABE8
:103750000122FDF763FE10B14FF0FF303BE7B9F1F6
:10376000000F02D0C820FFF78FF840208DF810001E
:10377000914A12681179904A5268107804AB01227C
:10378000FDF74CFE10B14FF0FF3024E778208DF8A4
:103790001000894A12685179874A5268107804AB40
:1037A0000122FDF73BFE10B14FF0FF3013E78349D4
:1037B0008889FFF769F800208DF810007E4A1268AA
:1037C00051797D4A5268107804AB0122FDF726FE3C
:1037D00010B14FF0FF30FEE6774A1268917A764AD0
:1037E0005268107804AB0222FDF772FD10B14FF061
:1037F000FF30F0E69DF811009DF8101040EA012B13
:103800000C209BFBF0F0C6B20020A8606860286026
:10381000A06060602060824665E0674A1268D17AE5
:10382000654A5268107804AB0C22FDF751FD10B1C7
:103830004FF0FF30CFE69DF811009DF8101040EAE0
:10384000012000B2ADF808009DF813009DF8121099
:1038500040EA012000B2ADF80A009DF815009DF87D
:10386000141040EA012000B2ADF80C00BDF90810B8
:10387000206808442060BDF90A1060680844606050
:10388000BDF90C10A0680844A0609DF817009DF8D1
:10389000161040EA012000B2ADF800009DF81900B2
:1038A0009DF8181040EA012000B2ADF802009DF822
:1038B0001B009DF81A1040EA012000B2ADF8040088
:1038C000BDF90010286808442860BDF90210686836
:1038D00008446860BDF90410A8680844A8600AF1AB
:1038E000010000F0FF0AB24597DB3448D0F800C071
:1038F0002868C117090441EA104107046246002301
:103900003846FCF788FC32460023CDE90201FCF77B
:1039100082FC28602948D0F800C06868C1170904F3
:1039200041EA10410704624600233846FCF773FC65
:1039300032460023CDE90201FCF76DFC68601F48A8
:10394000D0F800C0A868C117090441EA1041070473
:10395000624600233846FCF75EFC32460023CDE980
:103960000201FCF758FCA8601448D0F804C0216894
:10397000C817000440EA11480F0462460023384685
:103980004146FCF748FC32460023CDE90201FCF732
:1039900042FC20600948D0F804C06068C1170904DF
:1039A00041EA10410704624600233846FCF733FC25
:1039B0003246002304E000006C0000204C64000844
:1039C000CDE90201FCF727FC60601148D0F804C083
:1039D000A068C117090441EA1041070462460023A8
:1039E0003846FCF718FC32460023CDE90201FCF70B
:1039F00012FCA060A068002804DDA068A0F580305B
:103A0000A06003E0A06800F58030A0600020E2E53F
:103A10004C6400082DE9FC5F06460F4600253D4931
:103A20004968087801AB03220D21FDF751FC10B164
:103A30000720BDE8FC9F9DF8040000F01F008DF8F2
:103A400004009DF8050000F01F008DF805009DF8AA
:103A5000060000F01F008DF80600002456E056F81E
:103A6000240057F82410A0EB010BBBF1000F01DB81
:103A7000594601E0CBF10001084602F087FA4FF009
:103A80008F41009002F050F9814601A8005D68B3B3
:103A90002149086802F092FA834659461F4802F00D
:103AA00043F9804604E01E49404602F0CFFA8046C2
:103AB00001A8005D401EC0B201A908550028F2D13E
:103AC0004146484602F030F983464FF07E5102F0FD
:103AD000BBFB82462AF0004B0F488169584602F032
:103AE00081FB12D20120A04005430EE00A48016983
:103AF000484602F077FA05D307484169484602F084
:103B000071FB02D20120A0400543641C032CA6DBFC
:103B100028468EE76C0000204C64000800B04C453D
:103B200054E3853F10B50446204600F00FF80346E5
:103B3000E01C00F00BF843EAC00083B2A01D00F0C7
:103B400005F843EA801083B2184610BD014691F98A
:103B50000020002A01DD00201EE091F90020002A4B
:103B600001DA042018E091F90120002A01DD01208A
:103B700012E091F90120002A01DA05200CE091F908
:103B80000220002A01DD022006E091F90220002A2D
:103B900001DA062000E0072070470000FEF752FE21
:103BA0004FF4A060FDF7A6FCFDF7F8FCFCF73AFF28
:103BB000FDF752F9FCF7F0FEFDF730FB07E029A214
:103BC00003210020FDF754FEC820FEF75DFE00F043
:103BD000A7F90028F3D16B214CF25030FEF7CAF858
:103BE00001212248FEF7F3F8FDF78EFC39E00A21A7
:103BF0000846FDF717F900B21D4908800A210B207D
:103C0000FDF710F900B21B4908800A210C20FDF7CE
:103C100009F900B2184908800A210D20FDF702F9C0
:103C200000B2164908801349B1F90010642201FB63
:103C300002F0C11700EB1151C1F30731104A1170A6
:103C40000D49B1F90010C1F58051642201FB02F069
:103C5000C11700EB1151C1F307310A4A1170FDF78A
:103C6000E9FEC4E74572726F720000000008004070
:103C70001E00002020000020220000202400002040
:103C80001B0000201C0000207047000070B5044697
:103C9000002624F00104184890F8240008B1002000
:103CA00070BD1548807A10B94FF0FF30F8E7124820
:103CB000057C807A2040104908740846007CA042A8
:103CC00002D04FF0FF3600E0002614B90A48007D0C
:103CD00018B1012001F050F902E0002001F04CF988
:103CE0003CB100F0ABFC20B1034805744FF0FF304D
:103CF000D6E73046D4E700006C0000202DE9F04FF5
:103D000099B004460D4616464FF07E574FF0000816
:103D10004FF000094FF0000A12A813A918AB0EAA21
:103D2000CDE9001014A916A8FEF77CFF18B10120F8
:103D300019B0BDE8F08FBDF84C0000F48070002889
:103D40007ED00E9802F022F983464FF09D4101F09B
:103D5000EBFF07460F9802F019F983464FF09D419B
:103D600001F0E2FF8046109802F010F983464FF010
:103D70009D4101F0D9FF8146119802F007F9834671
:103D80004FF09D4101F0D0FF824639464FF0804010
:103D900002F05CF94946059002F058F94146079057
:103DA0004FF0404002F052F95146059002F04EF9B2
:103DB0000690079901F04AFF834601F01BFFCDE909
:103DC0000801FEF7D1F94FF06632544BCDE90A01F4
:103DD00001F036FCCDE90C0101F03CF920604946C8
:103DE0004FF0804002F032F94946029002F02EF97D
:103DF000414604904FF0404002F028F941460290BD
:103E000002F024F90390049902F01EFA83464FF061
:103E10007E5101F01BFF059001F0ECFECDE9080199
:103E200039464FF0804002F011F94146039002F00C
:103E30000DF9494604904FF0804002F007F900E088
:103E400068E05146039002F001F98346049901F0BD
:103E5000FDFE059001F0CEFECDE90601DDE9082367
:103E6000FEF7CAFB4FF066322C4BCDE90A0101F098
:103E7000E7FBCDE90C0101F0EDF828605146504612
:103E800002F0E4F849460490484602F0DFF8414663
:103E90000390404602F0DAF839460190384602F0C5
:103EA000D5F80090019901F0D1FE0290039902F03B
:103EB000CBF98346049902F0C7F9059001F09AFE08
:103EC000CDE908015146384602F0C0F84946049051
:103ED000404602F0BBF80390049901F0B7FE4FF0A2
:103EE0008041059002F0B2F8834601F083FECDE9EF
:103EF0000601DDE90823FEF77FFB4FF06632074B32
:103F0000CDE90A0101F09CFBCDE90C0101F0A2F81A
:103F1000306001E002200BE7002009E766A64C4074
:103F200070B50024FDF75AF800F024F9002840D1BC
:103F3000782000F02FFFC4B20CB1012070BD7820B2
:103F4000FFF7A4FEC4B20CB10220F7E7642000F032
:103F5000D3FEC4B20CB10320F0E7FEF757FEC4B2A3
:103F60000CB10420EAE71548FFF7DCFD0546FFF732
:103F7000A7F8C4B20CB10520E0E740F27310FEF7D9
:103F8000EDFCC4B20CB10620D8E76420FEF7C8FFF0
:103F9000C4B20CB10720D1E700F0A4FF04460CB175
:103FA0000820CBE7012000F0A3FDC4B21CB109201A
:103FB000C4E70A20C2E70020C0E700009800002004
:103FC00001461148407A30B1012807D0022808D0B4
:103FD00003280CD108E0022008700BE004200870D0
:103FE00008E00820087005E01020087002E04FF09B
:103FF000FF30704700BF0448C07C18B10878400605
:10400000000E08700020F4E76C0000200146134801
:10401000407A30B1012808D002280AD0032810D1F4
:104020000BE04FF4804008800EE041F69C70088061
:104030000AE04FF48050088006E04FF400600880EA
:1040400002E04FF0FF30704700BF0448C07C10B161
:104050000888401008800020F5E700006C00002070
:1040600001460248007C0870002070476C00002068
:1040700001460F48007A30B1012807D0022809D044
:1040800003280FD10AE0FA2008800EE04FF4FA70FE
:1040900008800AE04FF47A70088006E04FF4FA6076
:1040A000088002E00020088000BF00BF00207047A9
:1040B0006C00002001460E48007A30B1012807D07C
:1040C000022808D003280CD108E00A4808600BE059
:1040D0000948086008E00948086005E008480860E9
:1040E00002E04FF0FF30704700BF0020FBE7000008
:1040F0006C0000200000034300008342333303427E
:104100003333834101461248C07A082817D2DFE8CA
:1041100000F01704070A0D101318BC20088013E0E4
:104120006220088010E02A2008800DE0142008801A
:104130000AE00A20088007E00520088004E000BFAC
:1041400000BF0020088000BF00BF002070470000B3
:104150006C0000200146064890F8240010B14FF092
:10416000FF3070470248C08908800020F9E700004E
:104170006C0000201CB580208DF80000654A126894
:10418000917C644A526810786B460122FDF746F92B
:1041900010B14FF0FF301CBD6420FEF775FB00200E
:1041A0008DF800005B4A1268917C5A4A5268107878
:1041B0006B460122FDF732F910B14FF0FF30EAE70C
:1041C000544A1268917D534A526810786B46062211
:1041D000FDF77EF810B14FF0FF30DCE79DF80500E9
:1041E000C007400F9DF8031001F0010140EA4100B3
:1041F0009DF8011001F0010140EA010494B1012C85
:1042000003D101214348C17431E0022C03D10021C4
:104210004048C1742BE021463FA0FCF721F84FF045
:10422000FF30B8E73B4A1268D1783A4A52681078B2
:104230006B460122FDF74CF810B14FF0FF30AAE7B2
:104240009DF8000000F00F042CB93D48FCF708F879
:104250004FF0FF309FE7042C06D13AA0FCF700F89E
:1042600001212C48C17402E000212A48C174FF21B9
:1042700028488172FF2027490872FF212548417292
:10428000C1724FF6FF71C181FF2101748174012158
:10429000017380F82210002180F823104175017508
:1042A0001630016041608160163880F8241080F873
:1042B0002510C1844FF4FA6000F062FC10B14FF099
:1042C000FF3068E7022000F02BFB10B14FF0FF3009
:1042D00061E72A2000F0CEFC10B14FF0FF305AE722
:1042E000322000F009FD10B14FF0FF3053E70020FD
:1042F000FFF7CCFC10B14FF0FF304CE7002000F08E
:1043000051FB10B14FF0FF3045E7002000F042FDB7
:10431000002040E76C000020556E737570706F725E
:1043200074656420736F6674776172652070726F54
:1043300064756374207265762025642E0A0000007F
:104340002892000848616C662073656E7369746911
:1043500076697479207061727420666F756E642E50
:104360000A0000002DE9F04385B005460E46904650
:104370009946294890F8250020B14FF0FF3005B04C
:10438000BDE8F08316B94FF0FF30F8E7002423E0D2
:10439000281B102801DD102000E0281B87B23219ED
:1043A0003946204600F05EFD10B14FF0FF30E6E7E1
:1043B00001AA3946204600F001F910B14FF0FF3054
:1043C000DDE730193A4601A9FCF72EF810B16FF07D
:1043D0000100D4E7E01984B2AC42D9DB4FEA2820CF
:1043E0008DF8000008F0FF008DF801000A4A1268FD
:1043F000917E094A526810786B460222FDF70EF84A
:1044000010B14FF0FF30BAE70121034880F82510C2
:10441000A0F826900020B2E76C00002038B50446D2
:10442000282C02DD4FF0FF3038BDDCB9002000F051
:10443000EBFB00208DF8000007208DF801002E4ACC
:104440001268917C2C4A526810786B460222FCF765
:10445000E5FF10B14FF0FF30E6E700212648017577
:104460000020E1E7012000F0CFFB20208DF80000C4
:10447000012C06D100208DF80100052000F0FAFB88
:1044800017E0052C06DC01208DF80100052000F066
:10449000F1FB0EE0142C06DC02208DF801000A204E
:1044A00000F0E8FB05E003208DF80100142000F087
:1044B000E1FB9DF80100072101EB8010C0B28DF8EF
:1044C00001000D4A1268917C0B4A526810786B46C5
:1044D0000222FCF7A3FF10B14FF0FF30A4E7082140
:1044E0000548817200210173012101750020FFF749
:1044F000CDFB002098E700006C000020F8B50446D2
:104500000F4616462C4890F8240010B94FF0FF30A3
:10451000F8BD2948807A10B94FF0FF30F8E7264AF5
:104520001268917A244A526810786B460222FCF78E
:10453000CFFE10B14FF0FF30EAE79DF801009DF883
:10454000001040EA0125A54203DA00203070401E29
:10455000DEE7194840684088B5EB600F17DD164A62
:104560001268517C144A526810786B460122FCF79D
:10457000AFFE10B14FF0FF30CAE79DF8000000F029
:10458000100020B100F05AF86FF00100C0E7E2B26D
:10459000094B1B68D97A084B5B6818783B46FCF7D7
:1045A00097FE10B14FF0FF30B2E795FBF4F0401EDC
:1045B00030700020ACE700006C000020F8B5044625
:1045C0000D46164616B94FF0FF30F8BD1A48807AEE
:1045D00010B94FF0FF30F8E720128DF80000E0B27C
:1045E0008DF801009DF80100284413494968498964
:1045F000884202DD4FF0FF30E7E70F4A1268117E74
:104600000D4A526810786B460222FCF707FF10B182
:104610004FF0FF30D9E7EAB2074B1B68597D064BD4
:104620005B6818783346FCF753FE10B14FF0FF304B
:10463000CBE70020C9E700006C00002008B57048F7
:10464000807A10B94FF0FF3008BD002000906C4A0E
:104650001268D17B6A4A526810786B460122FCF7D7
:10466000DDFE10B14FF0FF30EEE7654A1268517978
:10467000634A526810786B460122FCF7CFFE10B1F6
:104680004FF0FF30E0E75E4A126811795C4A5268E9
:1046900010786B460122FCF7C1FE10B14FF0FF30DD
:1046A000D2E7574890F82400002853D00C200090FF
:1046B000534A12681179524A526810786B460122A7
:1046C000FCF7ACFE10B14FF0FF30BDE73220FEF733
:1046D000DBF8C02000904A48807A00F0010020B149
:1046E0009DF8000040F020000090454A12681179C2
:1046F000434A526810786B460122FCF78FFE10B1D6
:104700004FF0FF30A0E73E48407C10B102200090FF
:1047100001E0002000903A4A1268D17B384A526882
:1047200010786B460122FCF779FE10B14FF0FF3094
:104730008AE700200090324A12685179304A526864
:1047400010786B460122FCF769FE002855D04FF027
:10475000FF3079E704200090294A12681179284A2D
:10476000526810786B460122FCF758FE10B14FF0EA
:10477000FF3069E72248807C20B92148807A00F028
:10478000010010B94020009001E0602000901C4A18
:10479000126811791A4A526810786B460122FCF7A8
:1047A0003DFE10B14FF0FF304EE73220FEF76CF8BF
:1047B0001348407C10B10120009001E000200090DF
:1047C0000F4A1268D17B0E4A526810786B4601225C
:1047D000FCF724FE10B14FF0FF3035E7084A1268AD
:1047E0005179074A52681078054B10330122FCF7C3
:1047F00015FE10B14FF0FF3026E7002024E700003F
:104800006C0000202DE9F04F8DB083460F4602204A
:104810000C90424890F8240020B1002000F068F984
:10482000012600E0002603A8FFF722FC05A8FFF7F9
:10483000C7FB01A8FFF766FC02A8FFF78BFC37480F
:1048400090F80AA004A8FFF70BFC002407E0002260
:1048500039465846FEF7A6FE00B902E0641C022C59
:10486000F5DB00BF022C01D1002528E0002407E081
:10487000012206A909A8FEF795FE00B902E0641C12
:10488000022CF5DB00BF022C01D1002517E006A9A0
:104890003846FDF7EBFB00F0FF0809A95846FFF783
:1048A000B9F800F0FF090025B9F1000F01D145F07A
:1048B0000105B8F1000F01D145F0020500BFFF204E
:1048C00016490872FF2115484172C1724FF6FF71F7
:1048D000C181FF218172017401210173BDF80C00B7
:1048E00000F04EF99DF8140000F01AF8BDF804002D
:1048F00000F0C0F9BDF8080000F0FEF9504600F0E5
:1049000049FA9DF81000FFF7C1F916B1012000F037
:10491000EFF828460DB0BDE8F08F00006C000020D5
:1049200038B504461E48807A10B94FF0FF3038BDC4
:10493000022C06D0042C07D0082C08D0102C0CD147
:1049400008E0002000900BE00820009008E0102014
:10495000009005E01820009002E04FF0FF30E6E7FD
:1049600000BF0F48407A9DF80010B0EBE10F01D175
:104970000020DCE70A4A1268D179094A52681078A7
:104980006B460122FCF74AFD10B14FF0FF30CEE735
:104990009DF80000C110024841720020C7E70000E6
:1049A0006C00002038B504465048807CA04201D1FC
:1049B000002038BD002C46D04C4A126811794B4A71
:1049C000526810786B460122FCF782FC10B14FF060
:1049D000FF30EEE79DF8000020F020000090434AF1
:1049E00012681179414A526810786B460122FCF72F
:1049F00015FD10B14FF0FF30DBE70320FDF744FF5A
:104A000002200090394890F8220020B19DF8000063
:104A100040F080000090354890F8230020B19DF8C8
:104A2000000040F030000090304A1268117D2F4A9B
:104A3000526810786B460122FCF7F0FC002851D038
:104A40004FF0FF30B5E7294A12681179274A5268BA
:104A500010786B460122FCF73BFC10B14FF0FF30A1
:104A6000A7E72248807A00F0010028B19DF80000F5
:104A700040F02000009004E09DF8000020F02000AD
:104A800000901A4A12681179184A526810786B46D9
:104A90000122FCF7C3FC10B14FF0FF3089E703207F
:104AA000FDF7F2FE114890F8220010B1802000902E
:104AB00001E0002000900D4890F8230020B19DF8FF
:104AC000000040F030000090084A1268117D074A4B
:104AD000526810786B460122FCF7A0FC10B14FF031
:104AE000FF3066E701488474002062E76C00002014
:104AF00038B50446214890F82400A04201D1002096
:104B000038BD24B31D4890F8250010B94FF0FF3090
:104B1000F6E7002000F030FA0020FFF743FF1749C6
:104B2000C88C00F0E9F80020009014494968087822
:104B30006B4601222321FCF771FC01210F4880F80C
:104B40002410012000F018FAFFF778FD13E0002090
:104B500000F012FA0948007C00900849496808787A
:104B60006B4601222321FCF759FC0021034880F801
:104B70002410FFF763FD0020C2E700006C00002056
:104B800038B504461F48807A10B94FF0FF3038BD61
:104B9000FA2C09D0B4F5FA7F09D0B4F57A7F09D0A0
:104BA000B4F5FA6F0CD108E0002000900BE008206B
:104BB000009008E01020009005E01820009002E02E
:104BC0004FF0FF30E3E700BF0E48007A9DF8001079
:104BD000B0EBE10F01D10020D9E70A4A12689179C0
:104BE000084A526810786B460122FCF717FC10B196
:104BF0004FF0FF30CBE79DF80000C010014908726C
:104C00000020C4E76C00002038B50446184890F82E
:104C10002300A04201D1002038BD14B13020009003
:104C200001E0002000901248807C20B19DF8000037
:104C300040F0020000900E4890F8220020B19DF84C
:104C4000000040F080000090094A1268117D084A77
:104C5000526810786B460122FCF7E0FB10B14FF070
:104C6000FF30D9E7024880F823400020D4E7000055
:104C70006C00002038B504461E48807A10B94FF009
:104C8000FF3038BDBC2C02DB0120009015E0622C07
:104C900002DB0220009010E02A2C02DB03200090AF
:104CA0000BE0142C02DB0420009006E00A2C02DB4F
:104CB0000520009001E0062000900E48C07A9DF883
:104CC0000010884201D10020DBE70A4A126891787F
:104CD000084A526810786B460122FCF79FFB10B11E
:104CE0004FF0FF30CDE79DF800100248C172002060
:104CF000C7E700006C00002038B504462448807ADD
:104D000010B94FF0FF3038BD214890F8240010B1A1
:104D10004FF0FF30F7E71E48007D50B134B1282C2A
:104D200004DCE0B2FFF77AFB0020ECE70020FFF79D
:104D300075FB042C01DA042404E0B4F57A7F01DD6C
:104D40004FF47A744FF47A7090FBF4F0401EC0B2C6
:104D500000900F4A126851780D4A526810786B46DD
:104D60000122FCF75BFB10B14FF0FF30CBE79DF861
:104D70000000401C4FF47A7191FBF0F081B20448BE
:104D8000C1810146C9894810FFF774FF0020BAE7C6
:104D90006C00002038B5044604F0700010B101200A
:104DA000009005E014B10020009001E04020009048
:104DB0002B4A1268917C2A4A526810786B4601226D
:104DC000FCF72CFB20B1002125488172481E38BD1C
:104DD0009DF8000020F04001214801730020009060
:104DE00004F0400020B99DF8000040F0040000905D
:104DF00004F0200020B99DF8000040F0020000906F
:104E000004F0100020B99DF8000040F0010000906F
:104E100004F0080020B99DF8000040F03800009030
:104E20000F4A1268D17C0E4A526810786B460122F4
:104E3000FCF7F4FA20B1002109488172481EC6E748
:104E400024B1082C02D00020FFF7DEFE0448847253
:104E5000002101753220FDF717FD0020B7E70000A3
:104E60006C000020F8B504460D46164616B94FF002
:104E7000FF30F8BD1A48807A10B94FF0FF30F8E7DC
:104E800020128DF80000E0B28DF801009DF80100BD
:104E90002844134949684989884202DD4FF0FF30B0
:104EA000E7E70F4A1268117E0D4A526810786B4688
:104EB0000222FCF7B3FA10B14FF0FF30D9E7EAB2A3
:104EC000074B1B68597D064B5B6818783346FCF727
:104ED000A5FA10B14FF0FF30CBE70020C9E7000082
:104EE0006C00002070B588B002A905A8FFF78AFC05
:104EF0000446032C3ED101A8FFF7DCF8059801F029
:104F000045F80646019901F0A1F8054601F002F8BE
:104F10000590069801F03AF80646019901F096F8D6
:104F2000054600F0F7FF0690079801F02FF80646B7
:104F3000019901F08BF8054600F0ECFF079005A8F9
:104F4000FEF726F86846FFF761F8BDF800100298F2
:104F500048430290BDF80010039848430390BDF801
:104F6000001004984843049002A8FDF741FF002078
:104F700008B070BD0120FBE738B50446214890F821
:104F80002400C0B114B10220009001E00020009084
:104F90001C4A1268D17B1B4A526810786B4601226A
:104FA000FCF73CFA10B14FF0FF3038BD9DF800100F
:104FB0001448417423E01348807A10B94FF0FF3051
:104FC000F3E724B10F48407C08B10020EDE714B1AD
:104FD0000120009001E0002000900A4A1268D17B75
:104FE000084A526810786B460122FCF717FA10B194
:104FF0004FF0FF30D9E79DF80010024841740020BF
:10500000D3E700006C0000202DE9F04106460F4672
:1050100000F020FC041E0D4618BF0120284320F09C
:105020000040C0F17F6000F1E040C00F0ED0301CA6
:1050300018BF0120384320F00040C0F17F6000F12C
:10504000E040C00F04BF0120FBF7A2FA204629462A
:10505000BDE8F08121F00042A2F16052B2F5801F5C
:1050600001F0004328BFD2F17F6C0BD95FEA001C2E
:1050700043EAC20242EB507018BF704728BF20F0CD
:1050800001007047B2F5801FBCBF184670474FEA59
:10509000410C1CF5001F02D2084601F09EB870B505
:1050A00000F078FB00000089FFF7F6BF4FF00040EA
:1050B000A0F580007047000010B591EA030F48BFCB
:1050C00083F0004300F1B484841A71EB030C05D221
:1050D000121943EB0C03001B61EB0C01DFF824E118
:1050E0004FEA1154A4EB135C1EEA430F18BF9EEA6B
:1050F000445F73D023EA0E03DCF1200E21EA045151
:1051000043F4801332D322FA0CFE10EB0E0023FA84
:105110000CFE41EB0E01CCF1200E03FA0EFE10EB5B
:105120000E0051F10001B1F5801FCCF1200E32D2FA
:1051300001EB045112FA0EF2BDE8104058BF70475F
:10514000401C38BF5FEA420218BF7047002814BFF6
:1051500020F0010041F100014FEA410313F5001F67
:1051600038BF7047A1F1C04100F062BB012A43EB98
:105170000302ACF1200CDCF11F0E32BF4FF0000E29
:1051800023FA0CF310EB030041EB0451B4EB115F75
:10519000D0D0A1EB045101F5801149085FEA30003D
:1051A00001EB04510ED350F1000038BF12FA0EFE8D
:1051B00008D1BDE81040C9E7401C38BF5FEA420291
:1051C000CAD1C3E7BDE810404FEA410313F5001F01
:1051D00038BF7047A1F1C04100F02ABB9EEA445F8E
:1051E00008D011EA5E0FBDE8104004BF01F0004195
:1051F00000207047BDE8104070B500F0CBFA00BF4A
:1052000064FBBE3E0000E0FF02494FF0000001F0E9
:1052100090B800BF0000F87F491058BFC1F140416D
:105220005B1058BFC3F140438B42EFF300807047DF
:105230002DE9C04130B4DFF8A0C23CEA111418BF18
:105240003CEA131400F0EC8081EA03051CEA111417
:1052500044EAD57418BF1CEA131500F0C780A4EB0C
:1052600005044FF0004545EAC12145EAC32341EA60
:10527000505143EA525304F17F74994204F50034CB
:105280004FEAC0204FEAC22208BF904200F09C8043
:105290004FEA13650FF24016765D4FEA134506FBA1
:1052A00005F7C7F1807706FB07F74FEAD737A7FB6B
:1052B00003687642C8F58038A7FB06CE38BFA8F150
:1052C000010807FB08E64FF0000EA6FB028CE6FB88
:1052D00003CEDCF1000CCEF1004E38BFAEF1010E72
:1052E000A6FB0C584FF000074FF00005E6FB0E87B9
:1052F000A1FB08C6A0FB07CE16EB0E0645F1000584
:10530000E1FB076515F1E04E7EBFA4F580345FEA4E
:1053100046066D4116F1800745F100054FEA172753
:105320004FEA066647EA0567A6F1DE46B6F1805FFA
:105330004FEA15251FD9384624F0010C05EBC4713E
:10534000BCF1FE6F01EB0C1102D8F0BCBDE800818E
:1053500024425CBF01F5801E9EEAC47F02D4F0BCEB
:10536000BDE80081244238D4F0BCA1F1C041BDE8C1
:10537000004100F05DBA4FEAD22242EA43524FEABE
:10538000D323A7FB02864FEAD02040EA415007FB17
:1053900003661EEA0E0F4FEAD12105FB026658BFD5
:1053A000A6EB0056B6EB00564FEA520E4EEAC37E0D
:1053B00018EB0E0E56EB530EBDD518EB02085E41EE
:1053C0007F1C55F10005B6E74FF480154FF000073C
:1053D0004FF000064FF00008ADE7F0BC4FF00000C2
:1053E00001F1C04101F00041BDE8008111EA0C1F4C
:1053F0000CEA131500D00CE013EA0C1F00F0258016
:105400004FF00000F0BC81EA030101F00041BDE86B
:105410000081F0BCBDE8004181EA030100F008BA58
:10542000F0BCBDE8004170B500F0B4F9097EFC3E67
:1054300000F007B881EA03014FF0000001F00041DD
:10544000704781EA030100F0F3B9F0BCBDE8004108
:105450004FF0000021497047FFFDFBF9F7F5F4F22A
:10546000F0EEEDEBE9E8E6E4E3E1E0DEDDDBDAD8FF
:10547000D7D5D4D3D1D0CFCDCCCBCAC8C7C6C5C45D
:10548000C2C1C0BFBEBDBCBBBAB9B8B7B6B5B4B374
:10549000B2B1B0AFAEADACABAAA9A8A8A7A6A5A45F
:1054A000A3A3A2A1A09F9F9E9D9C9C9B9A99999823
:1054B0009797969595949393929191908F8F8E8EC6
:1054C0008D8C8C8B8B8A8989888887878685858453
:1054D00084838382828181800000FF070000F87F3F
:1054E0004FEA41034FEA5353A3F58063D3F11E0300
:1054F000C8BFD3F1210C0CDD4FF0004242EAC122BB
:1055000042EA505232FA03FC8CEAE17CACEBE170E7
:105510007047102BC4BF0020704703F5787CBCF1A6
:10552000FF3F04D06FF0004282EA2100704770B55F
:1055300000F030F94992248000207047F2E7000023
:105540004FEA1153A3F58063D3F11E03A8BFD3F133
:10555000200C08DB4FF0004242EAC12252EA5052CE
:1055600032FA03F0704709420BD4102BC4BF00205D
:10557000704703F5787CBCF1FF3F05D04FF0FF305A
:1055800070474FF00000704770B500F003F900BF9E
:105590004992248000207047F0E710F0004248BF95
:1055A0004042B0FA80F310FA03F10AD0C3F11D03B0
:1055B00003F580634FEA415002EB035202EBD12125
:1055C00070474FF00000704751EA030C17D41CF5E8
:1055D000801F58BFBCF5801F00F10680994218BF9C
:1055E000704708BF9042704707D711F5801F58BF1A
:1055F00013F5801F19D499427047894270471CF5F2
:10560000801F08D5BCF5801FF7D58B4218BF7047A7
:1056100008BF824270474FF4001C1CEB410F38BF9B
:105620001CEB430F01D28B42704770B500F0B2F80B
:10563000922449004FF000514FF08053FFF7ECBD2A
:10564000DFF848C170B51CEA111E1EBF1CEA131515
:105650009EEA0C0F95EA0C0F00F06F8081EA0304BC
:1056600023EA4C134EEAD47E21EA4C1141F4801116
:1056700043F48013AE44A1FB024CA0FB0365AEF1E2
:105680007F7E361955EB0C05A1FB034C4CF1000352
:10569000A0FB021C16EB0C06654153F10003094206
:1056A00018BF46F0010613F4007F0BD14FEA033117
:1056B0004FEA0530340341EA155140EA16506FF0C5
:1056C00003020AE04FEAC3214FEAC520F40241EA8F
:1056D000555140EA56506FF0020202EB2E4201EBA8
:1056E000025585EACE710AD05FEA440C18BF24F057
:1056F000004450F1000041F1000120EAD47040F272
:10570000FE7C624500D270BDA84214BF4FF08044B9
:105710004FF04044002E08BF0024BEF1806FA8BFA8
:10572000A1F1C041BDE8704080F282804FF00000DE
:1057300001F1C04101F0004170479EEA0C0F0CEAF4
:10574000131518BF95EA0C0F06D04FF0000081EA40
:10575000030E0EF0004170BD00F01CF88900013E00
:1057600000F007B800F009B84FEA430C5FEA5C5C50
:1057700008D081EA030100F05BB84FEA410C5FEA10
:105780005C5CF6D14FF00000014970470000FF0754
:105790000000F87F0EF1020E2EF0030E5EF8046B8F
:1057A000364205D4012A43EB030515F5001F12D834
:1057B000012841EB010C1CF5001F0CD80ED14FEA5B
:1057C000D17C15F5001F0CEB4C0C0CF1020C08BF42
:1057D0004CEBD37C04E04FF0080C01E04FEAD37CA3
:1057E0000CEB4C0526FA05F606F00706B6F1040C9C
:1057F00006D20EEB860CBDE870404CF0010C604701
:10580000DFE80CF0090B02024FF000414FF00000FE
:10581000A1F5002170BD19461046012851EB010485
:1058200018BFD4F5001484BF002001F0004170BD02
:105830000808A0F500114FEA3101704791EA030F03
:1058400010B581F000413FF53FAC83F0004300F01C
:10585000EFB800002DE9F04101F5801CBCF5001FF8
:10586000C0F2C3804FEA115C21EA0C510CF1FD0C2F
:1058700041F480115FEA5C0C0CF5C07C01D3400060
:1058800049413DA4890241EA905187028E0E0A0CDB
:10589000A45D04FB04F602FB06F6C6F14046A4FB39
:1058A0000662F60D46EA422606FB06F4A4FB012337
:1058B0005242C3F1404338BF5B1EA6FB02420024A4
:1058C000E6FB0324D20B42EA4446A6FB0623A1FBD7
:1058D00002E2A3FB07E4A4184FF0000252F1000219
:1058E000E3FB01426442C2F1404E38BFAEF1010E0B
:1058F000A6FB04234FF00002E6FB0E32A2FB034698
:105900004FF00004B61954F10004E2FB0264A1FB5D
:1059100006E6A4FB07E816EB08064FF0000858F16E
:105920000008E4FB01687642C8F1405838BFA8F18E
:105930000108A2FB06E4A3FB08E52D194FF00004C3
:1059400054F10004E2FB0854A1FB05E6A7FB04E8C0
:1059500018EB06084FF0000656F10006E1FB04863E
:1059600018F1200556F10006A809A8F11B08B10995
:1059700008F03F08B8F10A0F40EA86601CD901EB35
:105980000C51BDE8F08100BFFCF5EEE8E2DDD8D3B4
:10599000CFCBC7C3C0BDB9B6B4B1AEACA9A7A5A3A0
:1059A000A19F9D9B9A9896959392908F8D8C8B89B1
:1059B0008887868584838281A0FB006800FB01F2D2
:1059C00008EB4208B8EB872807D5341858EB0104D8
:1059D000D5D5401C51F10001D1E7341A78EB010410
:1059E000CDD4401E71F10001C9E75FEA4C0C5FEABB
:1059F0009C5C0DD105D34FF0000001F00041BDE8E3
:105A0000F081BDE8F04170B5FFF7C4FE6DDBFFBE6D
:105A1000BDE8F0414FF00000004970470000F87FFA
:105A200010B591EA030F48BF83F000433FF54CAB3C
:105A3000841A71EB030C07D212198CF0004C43EB63
:105A40000C03001B61EB0C01DFF8A4E14FEA1154D9
:105A5000A4EB135C1EEA430F18BF9EEA445F00F0FC
:105A6000B08023EA6E03524221EA0451C3EB6E0375
:105A700038BF5B1EDCF1200E25D322FA0CFE10EBA2
:105A80000E0043FA0CFE41EB0E01CCF1200E03FA9E
:105A90000EFE10EB0E0051F10001CCF1200E29D4C6
:105AA00012FA0EF201EB0451BDE8104058BF7047E6
:105AB000401C1CBFB2F1004F704700280CBF491CAE
:105AC00020F00100704712EB020E43EB030218BFF7
:105AD0004FF0010E4EEA4202ACF1200CDCF11E0E3A
