:020000040800F2
:10000000E00A002061060008650400086704000893
:100010006B0400086F04000873040008000000006F
:10002000000000000000000000000000770400084D
:1000300079040008000000007B0400087D0400082B
:100040007B0600087B0600087B0600087B0600088C
:100050007B0600087B0600087B0600087B0600087C
:100060007B0600087B0600087B0600087B0600086C
:100070007B0600087B0600087B0600087B0600085C
:100080007B0600087B0600087B0600087B0600084C
:100090007B0600087B0600087B0600087B0600083C
:1000A0007B0600087B0600087B0600087B0600082C
:1000B0007B0600087B0600081D2500087B0600085B
:1000C0007B0600087B0600087B0600087B0600080C
:1000D0007B060008C5220008E52200087B06000810
:1000E0007B0600087B0600087B0600087B060008EC
:1000F0007B0600087B0600087B0600087B060008DC
:100100007B0600087B0600087B0600087B060008CB
:100110007B0600087B0600087B0600087B060008BB
:100120007B0600087B0600087B0600087B060008AB
:1001300000F002F800F03AF80AA090E8000C8244BF
:100140008344AAF10107DA4501D100F02FF8AFF29C
:10015000090EBAE80F0013F0010F18BFFB1A43F0A5
:10016000010318473C6500005C650000103A24BF9D
:1001700078C878C1FAD8520724BF30C830C144BF0C
:1001800004680C607047000000230024002500264E
:10019000103A28BF78C1FBD8520728BF30C148BFEA
:1001A0000B6070471FB51FBD10B510BD03F024FADA
:1001B0001146FFF7F7FF00F08DF803F042FA03B4A1
:1001C000FFF7F2FF03BC01F0D5FF00002DE9F04777
:1001D0001E221146232002F08DFB23209049087037
:1001E00070E08F48007804F059FA804600228D4B69
:1001F00004F0A4FA064600228B4B04F0D3FB04461D
:1002000004F008FA00F0FF0A012285480178504600
:1002100002F01EFA8248007804F040FA804600227C
:10022000804B04F08BFA06460022804B03F0AEFFB1
:10023000044604F0EFF900F0FF0A01227848017843
:10024000504602F005FA76480078C0F11E00784961
:1002500008700846007804F021FA80460022714BAD
:1002600004F06CFA06460022724B04F09BFB044635
:1002700004F0D0F900F0FF0A01226D4801785046E1
:1002800002F0E6F96A48007804F008FA8046002295
:10029000644B04F053FA06460022664B03F076FFE7
:1002A000044604F0B7F900F0FF0A01226048017823
:1002B000504602F0CDF902F077F959480078401E17
:1002C00057490870564800781E288ADA02F06CF9FF
:1002D000BDE8F08702F0D4FC01F0E2FE02F013FC6E
:1002E0004FF4E13001F0A1FF4FF4A06000F0D8F925
:1002F000472140F2F31002F049F8472144F620600C
:1003000002F099F823214CF2503002F0DBF8002281
:100310000121494801F0FDF902F040FD40F2BA41E7
:10032000480701F075FC0A2001F0F7FE77E0002095
:1003300002F0C0FC4149087008460078012804D149
:100340003F4800680A303E4908603C48007802286F
:1003500004D13B4800680A383949086039480078B8
:10036000E8B996203649086001221146324801F06A
:10037000D0F902F0D2FD002201212F4801F0C9F985
:10038000314800683149086031480078FF2803D1BE
:1003900000202B49086002E096202949086029487E
:1003A000007801280ED12B480078400024490860CD
:1003B00029480078C0F1320000EB800000F2BA401A
:1003C0002249086021480068B0F5C86F02DD4FF48B
:1003D000C86001E01D4800681C49086008460068C4
:1003E00040F25231884201DA084601E017480068BD
:1003F000164908600846008881B24FF0804001F03D
:1004000007FC1648008881B2154801F001FC0C4831
:10041000008881B2124801F0F9FBFFF7D7FE86E7AA
:10042000100000200000E03F00005B400000314071
:10043000110000200000504000080040080000208B
:1004400000000020090000204C0000200C000020CB
:100450005C0000200A0000200B00002004000020A7
:1004600000040040704700BFFEE700BFFEE700BF8A
:10047000FEE700BFFEE77047704770477047000017
:100480000CB50020019000906C48006840F480306A
:100490006A49086000BF6948006800F400300090B5
:1004A0000198401C0190009818B90198B0F5A06F10
:1004B000F1D16248006800F4003010B101200090D2
:1004C00001E0002000900098012843D15C480068BA
:1004D00040F010005A4908600846006820F0030008
:1004E00008600846006840F0020008605348406811
:1004F000524948600846406848600846406840F4F1
:10050000806048600846406820F47C1048600846D7
:10051000406840F4E81048600846006840F0807089
:10052000086000BF4548006800F000700028F9D05E
:100530004248406820F0030040494860084640684F
:1005400040F00200486000BF3C48406800F00C00EA
:100550000828F9D10CBD10B5FFF792FF10BD10B5FA
:100560003648006840F00100344908600846406899
:10057000344908403149486008460068324908401B
:100580002E4908600846006820F48020086008466C
:10059000406820F4FE0048604FF41F008860FFF7B9
:1005A000DAFF4FF000602949086010BD10B5002146
:1005B00000200022214B5B6803F00C0121B10429CB
:1005C00006D0082928D107E0214B224C236027E0E0
:1005D0001F4B204C236023E0184B5B6803F4701022
:1005E000164B5B6803F48032022303EB904022B980
:1005F000194B4343174C23600DE0104B5B6803F429
:10060000003323B1144B4343124C236003E0104BDF
:100610004343104C236003E00D4B0E4C236000BF9E
:1006200000BF064B5B68C3F303130C4CE15C094B42
:100630001B68CB40074C236010BD00000010024037
:10064000002002400000FFF8FFFFF6FE08ED00E08A
:1006500000127A001400002000093D00180000205C
:100660000948804709480047FEE7FEE7FEE7FEE746
:10067000FEE7FEE7FEE7FEE7FEE7FEE70448054982
:10068000054A064B704700005F050008310100086D
:10069000E0040020E00A0020E0060020E006002040
:1006A00031490143314A1160704770B50021002380
:1006B0000F22C47804B32D4C246804F4E064C4F51C
:1006C000E064210AC1F10403CA40447804FA03F14A
:1006D0008478144021430901254C0678A1550478FB
:1006E00004F01F050124AC4005786D11AD0005F143
:1006F000E025C5F8004109E0047804F01F05012455
:10070000AC401C4D0678761145F8264070BD1A4A5B
:100710000A400243154B1B1F1A60704739B1134A38
:10072000121D12680243114B1B1D1A6006E00F4A8E
:10073000121D126882430D4B1B1D1A60704704285E
:1007400008D14FF0E021096941F004014FF0E022A7
:10075000116107E04FF0E021096921F004014FF039
:10076000E0221161704700000000FA050CED00E086
:1007700000E400E080E100E080FFFF1F10B50446C8
:10078000CC48844208D10121042000F02DFB002137
:10079000042000F029FB46E0C748844208D101212B
:1007A000082000F021FB0021082000F01DFB3AE0AA
:1007B000C248844208D10121102000F015FB00211D
:1007C000102000F011FB2EE0BD48844208D1012129
:1007D000202000F009FB0021202000F005FB22E092
:1007E000B848844208D10121402000F0FDFA0021E0
:1007F000402000F0F9FA16E0B348844208D1012104
:10080000802000F0F1FA0021802000F0EDFA0AE0EB
:10081000AE48844207D10121801500F0E5FA00219D
:10082000A01500F0E1FA10BD10B50121084600F056
:10083000DBFA0021012000F0D7FA10BD2DE9F041CC
:10084000024600250026002000230024002791F8FE
:1008500003C00CF00F0591F803C00CF0100CBCF1B4
:10086000000F03D091F802C04CEA050591F800C0D2
:10087000BCF1000F31D0146800202BE04FF0010CC8
:100880000CFA00F3B1F800C00CEA03069E4220D136
:1008900083004FF00F0C0CFA03F7BC4305FA03FC7E
:1008A0004CEA040491F803C0BCF1280F06D14FF0C4
:1008B000010C0CFA00FCC2F814C00AE091F803C065
:1008C000BCF1480F05D14FF0010C0CFA00FCC2F846
:1008D00010C0401C0828D1D31460B1F800C0BCF18E
:1008E000FF0F34DD546800202EE000F1080C4FF0BB
:1008F000010808FA0CF3B1F800C00CEA03069E42A6
:1009000021D183004FF00F0C0CFA03F7BC4305FA1A
:1009100003FC4CEA040491F803C0BCF1280F05D194
:1009200000F1080C08FA0CF8C2F8148091F803C022
:10093000BCF1480F07D100F1080C4FF0010808FA8C
:100940000CF8C2F81080401C0828CED35460BDE8D3
:10095000F0814FF6FF710180022181700421C17086
:1009600070470246002093680B400BB1012000E065
:10097000002070470146886880B270470246002018
:10098000D3680B400BB1012000E000207047014606
:10099000C86880B2704701617047416170470AB111
:1009A000016100E041617047C16070474FF48032DF
:1009B0000A4382618161826182698269704702466D
:1009C0000020434B18684FF68073184040EA02102D
:1009D00008433F4B186070473E49C8617047F0B507
:1009E0000A46002300240021002500F00046B6F14D
:1009F000004F02D1364EF16901E0354E7168C0F307
:100A0000034583B200F44016B6F5401F08D121F02B
:100A100070612F4E766826F070662D4F7E6012E072
:100A200000F48016B6F5801F06D1032606FA05F4F9
:100A3000A14341F0706106E0460D360103FA06F667
:100A4000B14341F0706122B1460D360103FA06F65A
:100A5000314300F00046B6F1004F02D11C4EF16167
:100A600001E01B4E7160F0BD30B500228B071C0FFA
:100A70000F2303FA04F2164B08338C1053F824307A
:100A80009343134C08348D1044F8253023468C10C2
:100A900053F824308C07240F00FA04F423430C4C41
:100AA00008348D1044F8253030BD0A49DC31086027
:100AB0007047000000080140000C01400010014098
:100AC0000014014000180140001C014000200140BA
:100AD0000000014000002042DF48006840F00100B3
:100AE000DD49086008464068DC490840DA4948604A
:100AF00008460068DA490840D74908600846006897
:100B000020F4802008600846406820F4FE00486019
:100B10004FF41F0088607047CF49096821F4803185
:100B2000CD4A11601146096821F480211160B0F5A9
:100B3000803F03D0B0F5802F0ED106E0C64909688A
:100B400041F48031C44A116007E0C349096841F4A7
:100B5000A021C14A116000E000BF00BF704710B57E
:100B600001460022002300204A11012A02D1BA4C7A
:100B7000236806E0022A02D1B74C236A01E0B64C92
:100B8000636A01F01F02012494401C400CB1012053
:100B900000E0002010BD38B50020009000240025A2
:100BA00000BF3120FFF7DBFF05460098401C009096
:100BB0000098B0F5A06F01D0002DF2D03120FFF7E2
:100BC000CEFF08B1012400E00024204638BD0146D4
:100BD0000020A14A106820F0F80040EAC10010602F
:100BE0007047A04908607047024600209A4B586839
:100BF00020F47C1042EA01031843974B5860704779
:100C000098490866704701460020934A506820F0D2
:100C100003000843506070478F48406800F00C00A4
:100C20007047014600208C4A506820F0F0000843CD
:100C30005060704701460020874A506820F4E06009
:100C400008435060704701460020834A506820F4F2
:100C5000605040EAC1005060704729B17E4A527A24
:100C600002437D4B5A7204E07B4A527A82437A4BAC
:100C70005A7270477B49D83108607047014600209E
:100C8000754A506820F44040084350607047002186
:100C9000714A20321170704A82F82010012802D067
:100CA00004280AD104E001216B4A2032117005E0CA
:100CB0000521694A2032117000E000BF00BF704773
:100CC0006949086070476449096A0143624A1162D0
:100CD0007047654944390860704730B500210022EB
:100CE000002400235C4D6D6805F00C0121B104293E
:100CF00005D0082923D105E05C4D056022E05B4D5D
:100D000005601FE0544D6D6805F47012524D6D681A
:100D100005F48034022505EB92421CB9544D55432D
:100D200005600BE04C4D6D6805F400351DB1504D6C
:100D30005543056002E04D4D5543056002E04B4DC3
:100D4000056000BF00BF444D6D6805F0F001090962
:100D5000484D6B5C0568DD4045603F4D6D6805F4AE
:100D6000E061090A434D6B5C4568DD4085603A4DA2
:100D70006D6805F46051C90A3E4D6B5C4568DD4005
:100D8000C560354D6D6805F44041890B3A4D6B5C8B
:100D9000C568B5FBF3F5056130BD29B12E4A52692E
:100DA00002432D4B5A6104E02B4A526982432A4B7D
:100DB0005A61704729B1284A92690243264B9A61C9
:100DC00004E0254A92698243234B9A61704729B116
:100DD000214AD2690243204BDA6104E01E4AD269FB
:100DE00082431D4BDA61704729B11B4AD268024326
:100DF000194BDA6004E0184AD2688243164BDA6075
:100E0000704729B1144A12690243134B1A6104E076
:100E1000114A12698243104B1A61704712494039D6
:100E2000086070470F49C86470470B49C871704724
:100E30000948406A40F0807007494862704701469F
:100E40000020054A92680A400AB1012000E0002013
:100E50007047014988727047001002400000FFF897
:100E6000FFFFF6FE000042428004424200127A0078
:100E700000093D00280000203800002010B504467D
:100E8000FE48844208D10121C014FFF7ADFF0021C4
:100E9000E014FFF7A9FFC4E0B4F1804F08D10121AD
:100EA0000846FFF7AEFF00210120FFF7AAFFB8E0D8
:100EB000F348844208D101210220FFF7A2FF00215C
:100EC0000220FFF79EFFACE0EE48844208D10121EA
:100ED0000420FFF796FF00210420FFF792FFA0E017
:100EE000E948844208D101210820FFF78AFF002148
:100EF0000820FFF786FF94E0E448844208D10121EE
:100F00001020FFF77EFF00211020FFF77AFF88E016
:100F1000DF48844208D101212020FFF772FF002121
:100F20002020FFF76EFF7CE0DA48844208D10121DF
:100F30004014FFF759FF00216014FFF755FF70E0E0
:100F4000D548844209D10121C804FFF74DFF002193
:100F50004FF40020FFF748FF63E0D048844209D1F6
:100F600001210805FFF740FF00214FF48010FFF733
:100F70003BFF56E0CA48844209D101214805FFF7EA
:100F800033FF00214FF40010FFF72EFF49E0C54862
:100F9000844208D101214020FFF733FF0021402087
:100FA000FFF72FFF3DE0C048844208D10121802097
:100FB000FFF727FF00218020FFF723FF31E0BB4828
:100FC000844208D101218015FFF71BFF0021A015E5
:100FD000FFF717FF25E0B648844209D10121080434
:100FE000FFF702FF00214FF48030FFF7FDFE18E00D
:100FF000B048844209D101214804FFF7F5FE0021E1
:101000004FF40030FFF7F0FE0BE0AB48844208D10C
:1010100001218804FFF7E8FE00214FF48020FFF74C
:10102000E3FE10BD00220288944B98420ED0994BEB
:1010300098420BD0B0F1804F08D0914B984205D028
:10104000904B984202D0904B984204D14FF68F7348
:101050001A404B881A438D4B984207D08C4B9842CC
:1010600004D04FF6FF431A40CB881A4302808B8886
:1010700083850B880385814B98420BD0854B984222
:1010800008D08B4B984205D08A4B984202D08A4BAD
:10109000984201D10B7A038601238382704770B591
:1010A000002400220023058C4FF6FE76354005848F
:1010B000028C8388048B4FF68F752C40B51E2C4014
:1010C0000D882C43751E2A400D892A434D882A43DA
:1010D0006A4DA8420BD06F4DA84208D0744DA8426B
:1010E00005D0744DA84202D0734DA84213D14FF6DB
:1010F000F7752A404D892A434FF6FB752A408D88A3
:101100002A434FF6FF652B404FF6FF552B408D8944
:101110002B43CD892B4383800483CD88858602842D
:1011200070BD70B5002400220023058C4FF6EF76C9
:1011300035400584028C8388048B48F6FF752C406B
:101140004FF6FF452C400D884FF6FF7606EA052541
:101150002C434FF6DF752A400D8906EA05152A4310
:101160004D8806EA05152A43444DA84202D0494D50
:10117000A8421DD14FF67F752A404D894FF6FF7664
:1011800006EA05152A434FF6BF752A408D8806EA00
:1011900005152A434FF6FF352B404FF2FF752B40C4
:1011A0008D8906EA85052B43CD8906EA85052B4303
:1011B00083800483CD880587028470BD70B50024C8
:1011C00000220023058C4FF6FF6635400584028C13
:1011D0008388848B4FF68F752C404FF6FC752C401E
:1011E0000D882C434FF6FF552A400D894FF6FF76A8
:1011F00006EA05252A434D8806EA05252A431F4DA0
:10120000A84202D0234DA8421DD14FF2FF752A40BB
:101210004D894FF6FF7606EA05252A434FF6FF353E
:101220002A408D8806EA05252A434EF6FF752B4095
:101230004DF6FF752B408D8906EA05152B43CD89A8
:1012400006EA05152B4383808483CD888587028435
:1012500070BD70B5002200230024058C4EF6FF7689
:1012600035400584038C8488828B48F6FF752A40BC
:101270004FF6FF452A400D8820E00000002C014079
:101280000004004000080040000C00400010004036
:101290000014004000340140004C01400050014067
:1012A0000054014000180040001C00400020004095
:1012B0000040014000440140004801404FF6FF76E5
:1012C00006EA05252A434DF6FF752B400D8906EAEF
:1012D00005352B434D8806EA05352B43FA4DA842C8
:1012E00002D0FA4DA84208D14BF6FF752C408D89EB
:1012F0004FF6FF7606EA85152C4384808283CD88DD
:10130000A0F84050038470BD828B4FF2FF331A4027
:101310008283828B4FF6FF7303EA01231A43828391
:101320007047F0B50C461546002200210026078CB8
:101330004EF6FF7C07EA0C070784828B018C4FF680
:10134000FF7707EA043640F6FF473A404FF6FF774B
:1013500007EA05273A434FF6FF7707EA03373A4390
:10136000D94FB8420ED0D94FB8420BD0B0F1804F10
:1013700008D0D74FB84205D0D64FB84202D0D64F8A
:10138000B84206D14DF6FF77394046F480573943CD
:1013900005E047F6FF57394044F4805739438283CC
:1013A0000184F0BD828B4FF6F3731A408283828BE7
:1013B0000A4382837047F0B50C461546002200218F
:1013C0000026078C4FF6FF6C07EA0C070784828B18
:1013D000018C4FF6FF7707EA04264FF60C773A4068
:1013E0004FF6FF7707EA03172F433A43B64FB84249
:1013F0000ED0B64FB8420BD0B0F1804F08D0B44FEA
:10140000B84205D0B34FB84202D0B34FB84206D16C
:101410004FF6FF57394046F48077394305E04FF2E5
:10142000FF57394044F48077394382830184F0BD0B
:10143000028B4FF2FF331A400283028B4FF6FF7389
:1014400003EA01231A4302837047F0B50C461546A0
:10145000002200210026078C4FF6EF7C07EA0C07DC
:101460000784028B018C4FF6FF7707EA041640F6DB
:10147000FF473A404FF6FF7707EA03373A434FF604
:10148000FF7707EA05273A438F4FB8420ED08F4FB8
:10149000B8420BD0B0F1804F08D08D4FB84205D084
:1014A0008C4FB84202D08C4FB84206D14FF6DF774E
:1014B000394046F01007394305E04FF65F77394071
:1014C00044F01007394302830184F0BD028B4FF6CC
:1014D000F3731A400283028B0A4302837047F0B50C
:1014E0000C46154600220021068C4FF6FE773E4042
:1014F0000684028B018C4FF60C7632407E1C06EA85
:1015000003162E433243704EB0420ED06F4EB0429F
:101510000BD0B0F1804F08D06D4EB04205D06D4E6B
:10152000B04202D06C4EB04206D14FF6FD7631404B
:1015300044F00106314305E04FF6F576314044F0C2
:101540000106314302830184F0BD70B505460C46A7
:101550005D4885420ED05D4885420BD0B5F1804F85
:1015600008D05B48854205D05A48854202D05A4887
:10157000854200D100E000BF208850B92389A288AD
:1015800061882846FFF7ABFFE1882846FFF79EFFFA
:1015900025E0208804280AD12389A288618828466A
:1015A000FFF753FFE1882846FFF742FF17E0208846
:1015B00008280AD12389A28861882846FFF7FBFE04
:1015C000E1882846FFF7EEFE09E02389A2886188BA
:1015D0002846FFF7A6FEE1882846FFF795FE70BD76
:1015E0002DE9F04105460C4600260127608808B920
:1015F000022600E00026A088012801D1022700E091
:1016000001272088A0B92389A28861882846FFF78E
:1016100066FFE1882846FFF759FF23893A4631469D
:101620002846FFF712FFE1882846FFF701FF13E085
:101630002389A28861882846FFF707FFE1882846AA
:10164000FFF7F6FE23893A4631462846FFF747FF63
:10165000E1882846FFF73AFFBDE8F0810A884B8809
:101660001A438B881A43CB881A430B891A434B8938
:101670001A438B891A43A0F8442070474FF6FF7134
:10168000818000210180C18041800172704700216A
:10169000018041808180C180018141818181C1813E
:1016A0007047002101804180012181800021C1809B
:1016B000018170470021018041808180C1800181CA
:1016C0004181818170470000002C014000340140BD
:1016D0000004004000080040000C004021B10288D6
:1016E00042F00102028004E002884FF6FE731A40C5
:1016F0000280704731B1B0F8442042F40042A0F8B3
:10170000442005E0B0F84420C2F30E02A0F84420C3
:1017100070471AB183890B43838102E083898B432D
:10172000838170478182704741EA0203A0F8483004
:1017300070471AB183890B43838102E083898B430D
:101740008381704701894FF6F8721140018170471B
:101750000A46002101894FF68F7319401143018118
:10176000704730B504460D4629462046FFF7F0FF86
:10177000208940F00700208130BD2DE9F04104466A
:101780000D4616461F46602D06D13B4601223146C6
:101790002046FFF75AFE05E03B460122314620462F
:1017A000FFF79DFE29462046FFF7D2FF208940F033
:1017B00007002081BDE8F08130B50C460021018989
:1017C000C9B24FF6FF7505EA0325154325432943A2
:1017D000018130BD2DE9F04105460E461746984679
:1017E000002443463A4631462846FFF7E5FF2C8958
:1017F0004FF6F870044044F007044FF68F70044031
:1018000044F070042C81BDE8F081F0B504460D462B
:1018100016461F463B46324629462046FFF7CCFF78
:10182000208940F480402081F0BD0185828270478C
:101830000A46002101884FF68F7319401143018039
:101840007047F0B50C4615461E46002100220023C5
:101850000189028B038C4FF6F877394021434FF60C
:10186000FC473A4040F201173A434FF6DD773B40E0
:101870004FF6FF7707EA06172F433B4301810283A8
:101880000384F0BD0A460021018B4FF68F73194087
:101890001143018370470A460021018B48F6FF730C
:1018A00019404FF6FF7303EA02231943018370477F
:1018B0000A460021818B4FF68F73194011438183B3
:1018C00070470A460021818B48F6FF7319404FF696
:1018D000FF7303EA022319438183704721B1028811
:1018E00042F08002028004E002884FF67F731A40C3
:1018F0000280704721B1828842F00402828004E0B5
:1019000082884FF6FB731A408280704721B182882B
:1019100042F00802828004E082884FF6F7731A4092
:101920008280704721B1828842F00102828004E007
:1019300082884FF6FE731A40828070470A46002163
:10194000018B4FF6F77319401143018370470A4624
:101950000021018B4FF2FF7319404FF6FF7303EA2A
:1019600002231943018370470A460021818B4FF6F9
:10197000F77319401143818370470A460021818B18
:101980004FF2FF7319404FF6FF7303EA0223194326
:10199000818370470A460021018B4FF6FB73194083
:1019A0001143018370470A460021018B4FF6FF3334
:1019B00019404FF6FF7303EA02231943018370476E
:1019C0000A460021818B4FF6FB7319401143818336
:1019D00070470A460021818B4FF6FF3319404FF6BE
:1019E000FF7303EA02231943818370470A460021EB
:1019F000018B4FF67F7319401143018370470A46EC
:101A00000021018BC1F30E014FF6FF7303EA02239D
:101A10001943018370470A460021818B4FF67F737B
:101A200019401143818370470A460021818BC1F31D
:101A30000E014FF6FF7303EA0223194381837047B7
:101A40000A460021018C4FF6FD73194011430184B1
:101A500070470A460021018C4FF6F7731940114375
:101A6000018470470A460021018C4FF6DF7319404C
:101A70004FF6FF7303EA02131943018470470A46C5
:101A80000021018C4FF67F7319404FF6FF7303EA74
:101A900002131943018470470A460021018C4FF656
:101AA000FF5319404FF6FF7303EA022319430184E1
:101AB00070470A460021018C4FF2FF7319404FF620
:101AC000FF7303EA02231943018470470A46002189
:101AD000018C4DF6FF7319404FF6FF7303EA023392
:101AE00019430184704730B5002301248C40A3B210
:101AF000048C9C430484048C02FA01F5ADB22C439F
:101B0000048430BD30B5002304248C40A3B2048C7F
:101B10009C430484048C02FA01F5ADB22C43048486
:101B200030BD70B50346002000241846183001254A
:101B30008D40ACB21D8CA5431D8409B1082909D183
:101B400000EB6100056825F0700505600568154328
:101B500005600EE00D1FC5F34E052844056825F409
:101B6000E045056005684FF6FF7606EA0226354334
:101B7000056070BD21B1028842F00202028004E0DB
:101B800002884FF6FD731A400280704721B1028827
:101B900042F00402028004E002884FF6FB731A4010
:101BA0000280704721B1828842F08002828004E086
:101BB00082884FF67F731A408280704702884FF602
:101BC000F7731A40028002880A43028070478288B5
:101BD0004FF68F731A40828082880A438280704752
:101BE00002894FF6F8731A40028102890A43028182
:101BF000704702894FF67F731A40028102890A43B7
:101C00000281704781847047818570478186704763
:101C10000187704781877047A0F84010704702889D
:101C20004FF6FF431A40028002880A430280704741
:101C30000146888E70470146088F70470146888F9D
:101C400070470146B1F8400070470146888C7047E4
:101C50000146088D704702460020138A0B400BB1E5
:101C6000012000E000207047CA430282704730B56F
:101C70000246002000230024158A05EA0103958905
:101C800005EA010413B10CB1012000E0002030BDD1
:101C9000CA4302827047000010B50446FB488442E4
:101CA00009D101218803FFF79FF800214FF48040FC
:101CB000FFF79AF832E0F648844209D1012148043E
:101CC000FFF79FF800214FF40030FFF79AF825E066
:101CD000F048844209D101218804FFF792F80021DD
:101CE0004FF48020FFF78DF818E0EB48844209D1CB
:101CF0000121C804FFF785F800214FF40020FFF709
:101D000080F80BE0E548844208D101210805FFF77F
:101D100078F800214FF48010FFF773F810BD2DE91B
:101D2000F04786B005460E460024A24600BFA146F5
:101D30000027B08900B100BF2F462C8A4CF6FF70F7
:101D40000440F08804432C82AC894EF6F310044022
:101D5000B08831890843718908430443AC81AC8A57
:101D60004FF6FF400440B0890443AC8201A8FEF75F
:101D7000B4FFC648874202D1DDF810A001E0DDF8CB
:101D80000CA0A88900F4004040B10AEBCA0000EBA7
:101D90000A1031684900B0FBF1F807E00AEBCA000D
:101DA00000EB0A1031688900B0FBF1F86420B8FB41
:101DB000F0F004012009642101FB1089A88900F4D6
:101DC000004040B1322000EBC900B0FBF1F000F060
:101DD0000700044308E0322000EB09106421B0FB47
:101DE000F1F000F00F0004432C8106B0BDE8F0874D
:101DF0004FF41651016000218180C18001810C21C6
:101E0000418100218181704710B502460020108A6F
:101E10004FF2FF0318400B884C8823438C882343E0
:101E2000CC8823431843108210BD002101804180DB
:101E30008180C180704721B1828942F40052828141
:101E400004E082894DF6FF731A4082817047F0B535
:101E50000346002400260025002040F66A17B942F8
:101E600000D100BF1846C1F3421401F01F0601273C
:101E700007FA06F5012C01D10C3004E0022C01D147
:101E8000103000E014301AB107682F43076002E0F9
:101E90000768AF430760F0BD1AB1838A0B438382A2
:101EA00002E0838A8B4383827047028A4FF6F07385
:101EB0001A400282028A0A430282704782894FF2E4
:101EC000FF731A40828182890A438281704721B15F
:101ED000828942F00202828104E082894FF6FD731A
:101EE0001A4082817047028A4FF6DF731A400282DD
:101EF000028A0A430282704721B1028A42F4804278
:101F0000028204E0028A4BF6FF731A400282704795
:101F1000C1F308028280704701468888C0F3080038
:101F20007047818941F0010181817047028BD2B2F3
:101F30000283028B42EA012202837047028B02F481
:101F40007F420283028B0A430283704721B1828A57
:101F500042F02002828204E0828A4FF6DF731A4048
:101F60008282704721B1828A42F01002828204E0AC
:101F7000828A4FF6EF731A408282704721B1828ABB
:101F800042F00802828204E0828A4FF6F7731A4018
:101F90008282704721B1828942F40042828103E04B
:101FA0008289C2F30E028281704721B1828A42F493
:101FB0000062828204E0828A4FF2FF731A408282BA
:101FC0007047828A4FF6FB731A408282828A0A43E4
:101FD0008282704721B1828A42F00202828204E04A
:101FE000828A4FF6FD731A408282704702460020B3
:101FF000B1F5007F00D100BF13880B400BB1012069
:1020000000E00020704701F40072B2F5007F00D1BB
:1020100000BFCA430280704770B502460024002307
:102020000025002040F66A16B14200D100BFC1F37E
:10203000421501F01F03012606FA03F3012D02D118
:102040009689334006E0022D02D1168A334001E022
:10205000968A33400C12012606FA04F4168834409E
:1020600013B10CB1012000E0002070BD10B50022BA
:10207000002340F66A14A14200D100BF0A120124D5
:102080009440A3B2DC43048010BD0000003801403E
:102090000044004000480040004C00400050004018
:1020A00010B56FF00400FEF74AFB2E4800682E4979
:1020B000B0FBF1F02D4908700846007800EB4001B4
:1020C000C1EBC0104FF6FF7101EAC000284908803B
:1020D00010BD0146254A12784A434FF0E0235A6169
:1020E00000229A611A46126942F001021A6100BF89
:1020F0004FF0E022106900F001021AB100F48032C2
:10210000002AF5D04FF0E022126922F001024FF0D0
:10211000E0231A6100229A6170470146144A12882E
:102120004A434FF0E0235A6100229A611A4612692D
:1021300042F001021A6100BF4FF0E022106900F086
:1021400001021AB100F48032002AF5D04FF0E022EB
:10215000126922F001024FF0E0231A6100229A6115
:10216000704700001400002000127A003C0000209C
:102170003E000020014600BF704700BF7C4A128825
:1021800002F04002002AF9D0C2B2794B1B1D1A801E
:10219000704710B586B00446012144F20400FEF7F2
:1021A00009FE4FF40070ADF8140003208DF81600FE
:1021B00018208DF8170005A96E48FEF73FFB4FF475
:1021C0008060ADF8140004208DF8170005A9694857
:1021D000FEF734FB25208DF8000003208DF8010068
:1021E0008DF8020001208DF803006846FEF75DFAC5
:1021F00001940020ADF80800ADF80A00ADF80C001D
:10220000ADF810000C20ADF80E0001A95848FFF7FA
:1022100086FD012240F225515548FFF718FE0121A5
:102220005348FFF708FE06B010BD10B586B004464F
:1022300001210420FEF7BEFD01214804FEF7C7FD81
:102240000420ADF8140003208DF8160018208DF836
:10225000170005A94748FEF7F1FA0820ADF8140069
:1022600004208DF8170005A94248FEF7E7FA26205A
:102270008DF8000003208DF801008DF80200012088
:102280008DF803006846FEF710FA01940020ADF8BF
:102290000800ADF80A00ADF80C00ADF810000C20F5
:1022A000ADF80E0001A93448FFF739FD012240F2D4
:1022B00025513148FFF7CBFD01212F48FFF7BBFD2A
:1022C00006B010BD10B540F225512948FFF7A4FE15
:1022D00038B12748FFF720FEC4B221462448FFF753
:1022E00017FE10BD10B540F225512348FFF794FEAC
:1022F00000283CD02048FFF70FFEC4B21F480078EA
:10230000052832D2DFE800F0030F1B232B00AA2C94
:1023100005D11A480078401C1849087002E00020D6
:102320001649087022E0552C05D114480078401C4D
:102330001249087002E000201049087016E01048A9
:1023400004700E480078401C0C4908700EE00D48DF
:1023500004700A480078401C0849087006E00A48E2
:10236000047000200549087000E000BF00BF10BDE8
:1023700000380140000801400044004046000020B1
:102380000A0000200B0000200900002030B589B0B1
:1023900005460C4601210220FEF719FD0121092006
:1023A000FEF708FD01216448FEF719FB012163488F
:1023B000FEF715FB3020ADF8200018208DF8230023
:1023C00003208DF8220008A95D48FEF737FAADF822
:1023D0001850ADF814400020ADF81A00ADF8160002
:1023E00005A95848FEF71EFE6020ADF80400012044
:1023F000ADF806000020ADF80C0001A95148FEF729
:102400004EFE01A94F48FEF78CFE08214D48FFF70C
:1024100095FA08214B48FFF79AFA01214948FFF73E
:1024200069F901214748FFF759FA01214548FFF7AB
:1024300055F909B030BD30B589B005460C460121CB
:102440000846FEF7C4FC01210420FEF7B3FC02207D
:10245000ADF8200018208DF8230003208DF822000D
:1024600008A93948FEF7EAF9ADF81850ADF814405C
:102470000020ADF81A00ADF8160005A94FF0804015
:10248000FEF7D0FD6020ADF804000120ADF8060095
:102490000020ADF80C0001A94FF08040FEF741FE8E
:1024A0000821C806FFF753FA01218807FFF722F930
:1024B00001218807FFF712FA01218807FFF70EF9BB
:1024C00009B030BD7FB505460C4601210420FEF75A
:1024D0007EFCADF80850ADF804400020ADF80A00CD
:1024E000ADF8060001A91948FEF79CFD012211462E
:1024F0001648FFF70EF91E208DF8000000208DF819
:1025000001008DF8020001208DF803006846FEF7F7
:10251000CCF801210D48FFF7E1F87FBD10B501218E
:102520000A48FFF7A4FB18B101210848FFF7B0FBE8
:1025300001200749087010BD0002300000081A0091
:10254000000C014000040040000801400008004069
:102550005E00002010B5FE4B19600023FD4CC4F84E
:10256000A831002216E00023F94C0C34236000F05F
:1025700080031BB10123241F236003E00023F44CDC
:10258000083423600123F24C0C3423604306180EF8
:10259000531CDAB2082AE6DB0123ED4C1034236029
:1025A000EC4CC4F8983110BD30B500241CE004F1A7
:1025B000B001C8B20021FFF7CDFF00210846FFF7A8
:1025C000C9FF00211020FFF7C5FF002508E0E24900
:1025D00001EBC501085D0121FFF7BCFF681CC5B216
:1025E000802DF4DB601CC4B2082CE0DB30BD00B5EC
:1025F00000218D20FFF7AEFF00211420FFF7AAFF76
:102600000021AF20FFF7A6FF00BD00B500218D20FF
:10261000FFF7A0FF00211020FFF79CFF0021AE2054
:10262000FFF798FF00BD30B500240CE0002506E060
:102630000020C94901EBC5010855681CC5B2802DB1
:10264000F6DB601CC4B2082CF0DBFFF7ADFF30BD39
:10265000F0B5144600267F2801DC3F2900DDF0BDDF
:102660000B46CF1701EB5777FF10C7F10707FAB2F8
:10267000CF1701EB5777FF10A1EBC707FDB2C5F1EC
:1026800007070123BB40DEB24CB1B34B03EBC003E1
:102690009B5C3343B04F07EBC007BB5408E0AE4B25
:1026A00003EBC0039B5CB343AB4F07EBC007BB54CA
:1026B00000BFD4E72DE9F04706460F4690469946FD
:1026C000DDF820A034460CE03D4606E0524629469F
:1026D0002046FFF7BDFF681CC5B24D45F6DD601C06
:1026E000C4B24445F0DDFFF75FFFBDE8F0872DE998
:1026F000F84F80460F4616461C46BA462046E3175A
:1027000004EB5373DB1021464FEAE47C04EB5C7C62
:102710004FEAEC0CA4EBCC0CBCF1000F02D04FF054
:10272000010C01E04FF0000C6344224604EBD27C24
:102730004FEA6C0C03FB0CF303F0FF0BA6F1200037
:10274000C6B200254EE00C2C07D106EB46008349AB
:1027500001EB8000405D009013E0102C05D1804813
:1027600000EB0610405D00900BE0182C07D106EB43
:10277000C6007C4901EB8000405D009001E0BDE8AF
:10278000F88F4FF0000927E0009800F0800028B192
:10279000394640460A9AFFF75BFF09E00A9808B9F4
:1027A000012000E00020024639464046FFF750FF76
:1027B00000984006000E0090781CC7B2A7EB0A00F4
:1027C000A04205D1574608F1010000F0FF0806E0DD
:1027D00009F1010000F0FF09B9F1080FD4DB00BFD7
:1027E000681CC5B25D45AEDB00BFC8E710B5024648
:1027F000012000E050430B1EA1F10104E1B2F9D128
:1028000010BD2DE9FF4F81B0074691461E460E9D33
:102810004FF0000A002439E0301B401EC1B20A20EC
:10282000FFF7E4FFB9FBF0F00A21B0FBF1F201FB86
:102830001208BAF1000F16D1701EA04213DDB8F1D4
:10284000000F0ED10120AB4605EBDB71491001FBF7
:1028500004710090C8B22B4620220299FFF747FF6F
:1028600012E04FF0010A0120AB4605EBDB71491085
:1028700001FB04710090C8B208F13001CAB22B46C6
:102880000299FFF734FF00BF601CC4B2B442C3DB3F
:1028900005B0BDE8F08FF8B506460F4615461C4654
:1028A00021E004EBD4714910C1F18001B14202DA98
:1028B00000263819C7B2C4F14000B84204DA00203B
:1028C00006460746FFF7AFFE012000902A78234610
:1028D00039463046FFF70BFF204604EBD07106EB7C
:1028E0006101CEB26D1C28787E2802DC2878202871
:1028F000D7DAF8BD2DE9F0478CB0064689469246F6
:10290000002448E0484601F0C9FECDE90801A01BBB
:1029100001F0ADFE074600224FF0804300F024FF97
:10292000CDE90201504601F0B9FE074600224FF002
:10293000804300F019FFCDE90001DDE9022302F038
:1029400023F9CDE9040101F0FBFBCDE906010BE021
:1029500098812142008021426C0000204C4E0008EA
:10296000C0520008B0580008DDE9082301F00EFC51
:10297000CDE90A0101F04EFEC5B2012221462846EA
:10298000FFF766FEC5F13F01C8B201222146FFF7FD
:102990005FFE601CC4B23F2CB4DD0CB0BDE8F08714
:1029A0002DE9F0473F20AC49087077E0AA4800784D
:1029B00001F074FE80464FF06632A84B01F0BEFE77
:1029C00006460022A64B01F0EDFF044601F022FE70
:1029D00000F0FF0A0122A04801785046FFF738FEB8
:1029E0009D48007801F05AFE80464FF066329B4BBE
:1029F00001F0A4FE064600229A4B01F0C7FB0446F4
:102A000001F008FE00F0FF0A0122934801785046C9
:102A1000FFF71EFE90480078C0F140009249087010
:102A20000846007801F03AFE80464FF066328B4B44
:102A300001F084FE064600228C4B01F0B3FF0446F1
:102A400001F0E8FD00F0FF0A0122874801785046B6
:102A5000FFF7FEFD8448007801F020FE80464FF02D
:102A600066327E4B01F06AFE064600227F4B01F083
:102A70008DFB044601F0CEFD00F0FF0A01227A48EA
:102A800001785046FFF7E4FD1420FFF746FBFFF7FF
:102A90008BFD71480078401E6F4908706E480078C1
:102AA000122883DA1E206C49087018E06A490978F8
:102AB000C1F17D01C8B201222F21FFF7C9FD01221A
:102AC000122165480078FFF7C3FD1420FFF725FBAE
:102AD000FFF76AFD60480078401C5F4908705E4857
:102AE00000785E28E2DD102361A214213C20FFF76C
:102AF000D2FEFFF759FD42F21070FFF70EFBFFF711
:102B000092FDBDE8F08708B501210820FEF752F9D3
:102B10004FF48860ADF8000010208DF8030003200A
:102B20008DF8020069465348FDF788FE4FF488612E
:102B30005048FDF730FF4FF44070ADF80000694693
:102B40004C48FDF77BFE4FF440714A48FDF723FFE8
:102B50008020ADF8000069464648FDF76FFE8021F1
:102B60004448FDF718FF0120434908604349C1F874
:102B70009801002040490C3908606420FFF7CDFA25
:102B800001203E49C1F89C010021AE20FFF7E2FC84
:102B90000021D520FFF7DEFC00215020FFF7DAFCF2
:102BA0000021A820FFF7D6FC00213F20FFF7D2FC30
:102BB0000021D320FFF7CEFC00210846FFF7CAFC16
:102BC00000214020FFF7C6FC00218D20FFF7C2FC4A
:102BD00000211420FFF7BEFC00212020FFF7BAFCE3
:102BE00000210220FFF7B6FC0021A120FFF7B2FC74
:102BF0000021C020FFF7AEFC0021DA20FFF7AAFC7D
:102C000000211220FFF7A6FC00218120FFF7A2FC83
:102C10000021EF20FFF79EFC0021D920FFF79AFC4E
:102C20000021F120FFF796FC0021DB20FFF792FC4A
:102C300000213020FFF78EFC0021A420FFF78AFC42
:102C40000021A620FFF786FC0021AF20FFF782FCC1
:102C5000FFF7E9FC08BD0000470000206666E63F7C
:102C600000005B4000003140480000200000504060
:102C700045000000000C0140A88121420080214253
:102C800008B501211420FEF795F80F20ADF80000DB
:102C900048208DF8030069463D48FDF7CFFD01202F
:102CA000ADF8000048208DF8030069463948FDF76B
:102CB000C5FD08BD10B5044614B1012036490870A1
:102CC00035480078002841D002213148FDF749FEFF
:102CD00098B108212E48FDF744FE70B101212C481F
:102CE000FDF73FFE48B104212948FDF73AFE20B127
:102CF00001212848FDF735FE40BB0A20FFF70DFAF9
:102D000000202549087002212148FDF72AFE08B954
:102D1000012010BD08211E48FDF723FE08B902203E
:102D2000F7E701211A48FDF71CFE08B90320F0E778
:102D300004211748FDF715FE08B90420E9E7012131
:102D40001448FDF70EFE08BB0520E2E702211048FB
:102D5000FDF707FE012819D108210D48FDF701FEF6
:102D6000012813D101210A48FDF7FBFD01280DD1EF
:102D700004210748FDF7F5FD012807D10121054889
:102D8000FDF7EFFD012801D1034908700020C0E7DD
:102D900000100140000801404900002008B5012151
:102DA0001C20FEF707F84FF47070ADF800004820C3
:102DB0008DF803006946F748FDF740FD4FF4807039
:102DC000ADF8000048208DF803006946F248FDF791
:102DD00035FD4FF46040ADF8000048208DF8030049
:102DE0006946EE48FDF72AFD08BD10B50024FF2016
:102DF000EB4908700020EB49087051E04FF4005196
:102E0000E648FDF7AEFDE84908704FF48071E248EE
:102E1000FDF7A7FDE44948704FF40071DD48FDF768
:102E2000A0FDE14988704FF48071DA48FDF799FD03
:102E3000DD49C8708021D748FDF793FDDA49087154
:102E40004021D448FDF78DFDD74948714FF400412A
:102E5000D248FDF786FDD44988714FF48041CF48B0
:102E6000FDF77FFDD049C871002410E0CD480078FF
:102E70004006000ECB490870C4F10700CA49085C3F
:102E8000C84909780843C7490870601CC4B2082CB7
:102E9000ECDBC3480078C34909780840C049087092
:102EA000C24800780028A9D0C0480078012802D183
:102EB0000020BE490870BA48007810BD2DE9FC41D9
:102EC000002605E0FFF791FF0DF80600701CC6B262
:102ED000052EF7DB00251AE0002412E01DF804108F
:102EE000601C1DF80000814209DD1DF80470601CA3
:102EF0001DF800000DF80400601C0DF80070601C47
:102F0000C4B2C5F10500A042E8DC681CC5B2042DBE
:102F1000E2DB9DF80200BDE8FC8110B5FFF7CEFFB3
:102F20009F49087008460078812870D03EDC202830
:102F30006ED01ADC0C286CD008DC09286AD2DFE8D5
:102F400000F069F0EFEEED69ECEBEA001C2875D0BB
:102F500006DC0F2873D0102872D018285AD16BE1E4
:102F60001E286ED01F28F9D1F5E060286AD00EDC4B
:102F70003E2868D006DC302870D038286FD03C2836
:102F8000ECD1F2E03F286BD04028E7D18BE17E28DE
:102F900067D006DC70286FD078286ED07C28DDD111
:102FA000B4E07F287AD08028D8D181E1E12870D0A0
:102FB00020DCC1286ED00EDC9F286CD006DC832874
:102FC0006AD0872869D08F28C8D1BFE0BF285BD0DE
:102FD000C028C3D13FE1CF286FD006DCC3286DD015
:102FE000C7286CD0CE28B9D1F3E0DF2847D0E0283D
:102FF000B4D102E1F72835D012DCF0286FD00ADC1A
:10300000E3286DD0E72865D0EF28A7D12FE027E18E
:1030100044E10CE1FBE0F12872D0F3289ED154E0AA
:10302000F83807288AD2DFE800F07D4BF214430F0E
:1030300004004FF461705E49086048E1CEE0C3E0EF
:1030400027E18DE002E15CE04FF4617058490860CF
:103050003DE14FF4C8605649086038E1F1E0C2E054
:1030600049E020E04FF4C860514908602FE14FF477
:10307000C8604F4908602AE1BAE07BE00EE04FF4F7
:10308000C8604B49086022E14FF46170484908600C
:103090001DE179E0B6E029E0BAE090E040F2BA4004
:1030A0004349086013E14FF46170414908600EE143
:1030B0004FF461703E49086009E112E07AE040E0B7
:1030C0004FF461703A49086001E14FF4C860384933
:1030D0000860FCE04FF4C86035490860F7E04EE056
:1030E0002AE04FF4C86032490860F0E040F2BA408C
:1030F0002F490860EBE04FF461702D490860E6E06D
:1031000015E04FF496602A490860E0E04FF46170E2
:1031100027490860DBE0B7E07FE083E0AFE0A4E0B0
:10312000A8E0CAE04FF4617021490860CFE04FF495
:10313000C8601F490860CAE04FF4C8601C490860B5
:10314000C5E04FF4C8601A490860C0E04FF46170F0
:1031500017490860BBE04FF4617015490860B6E09C
:103160004FF4617012490860B1E04FF4617010498A
:103170000860ACE04FF461700D490860A7E04FF4BF
:10318000C8600B490860A2E04FF4C86008490860B5
:103190009DE000000010014000080140000C0140CB
:1031A0005C0000205D0000205F0000205E00002029
:1031B0004C0000204FF4C860F449086087E04FF4E9
:1031C000C860F249086082E040F2BA40EF49086006
:1031D0007DE04FF4C860ED49086078E04FF4C860C6
:1031E000EA49086073E04FF4C860E84908606EE09F
:1031F0004FF4C860E549086069E04FF46170E34945
:10320000086064E04FF49660E04908605FE059E0D0
:103210004FF46170DD49086059E04FF46170DB499B
:10322000086054E040F2BA40D84908604FE04FF4DB
:103230006170D64908604AE04FF46170D349086074
:1032400045E04FF46170D149086040E04FF4C86038
:10325000CE4908603BE04FF4C860CC49086036E0D6
:103260004FF4C860C949086031E04FF4C860C749ED
:1032700008602CE04FF4C860C449086027E04FF4B0
:103280006170C249086022E04FF49660BF4908604F
:103290001DE04FF46170BD49086018E04FF46170A3
:1032A000BA49086013E04FF4C860B84908600EE0FE
:1032B0004FF4C860B549086009E04FF4C860B349ED
:1032C000086004E0B1480068B049086000BF00BF72
:1032D000AE480068B0F5C86F02DD4FF4C86001E089
:1032E000AA480068A94908600846006840F25231BF
:1032F000884201DA084601E0A4480068A349086052
:1033000010BD10B500240020A1490870FFF7D6FDBC
:10331000A04908700846007840F07F007F2802D15D
:103320004FF4C87000E000209B49096808449A499E
:1033300008609848007840F0BF00BF2802D14FF4E1
:10334000C87000E000209449096808449249086068
:103350009048007840F0DF00DF2801D18F4800E07E
:1033600000208D49096808448B4908608948007825
:1033700040F0EF00EF2801D1884800E000208649A6
:1033800009680844844908608248007840F0FE00DB
:10339000FE2801D1814800E000207F4909680844E7
:1033A0007D4908607B48007840F0FD00FD2801D190
:1033B0007A4800E0002078490968084476490860A6
:1033C0007448007840F0FB00FB2802D14FF4C8702D
:1033D00000E000207049096808446F4908606D48A2
:1033E000007840F0F700F72802D14FF4C87000E0F1
:1033F00000206949096808446749086000240BE017
:1034000064480078204100F00100614909780844CF
:103410005F490870601CC4B2082CF1DB5C4800787E
:10342000C0F108005A4908700846007848B15A4867
:103430000068097890FBF1F040F2BA41081A53494C
:10344000086052480068B0F5C86F02DD4FF4C860EC
:1034500001E04E4800684D4908600846006840F2A7
:103460005231884201DA084601E04848006847497D
:10347000086010BD2DE9F04F8BB000244FF0010B18
:1034800001200A9041480068A0F2BA4000FB0BF00E
:103490004349C968434A12688A1A0A9901FB020023
:1034A0003F49C8600846C0683E49086000BF07E061
:1034B0003B49601C51F8200041F82400601CC4B254
:1034C000022CF5DB3649086801F0D1F80546364A8A
:1034D000364B01F033F9CDE906013149486801F076
:1034E000C6F80546324A334B01F028F9CDE902010E
:1034F0002B49886801F0BBF807462B4A2E4B01F098
:103500001DF905460E462649C86801F0B0F8074681
:103510004FF03332294B01F011F981462A463346E8
:1035200000F034FECDE90001DDE9022300F02EFEBB
:10353000CDE90401DDE9062300F028FECDE908010C
:1035400001F038F81E4908600846006840F2BA41A8
:10355000081A1C49086008460068B0F5C86F02DD0B
:103560004FF4C86001E01748006816490860084633
:10357000006840F25231884201DA084601E0114801
:103580000068104908600BB0BDE8F08F4C000020C7
:10359000670000205C00002068000020D4FEFFFFD0
:1035A0006C040020540000207B14AE47E17A943F65
:1035B0009A9999999999A93FE17AB43F3333EB3FAE
:1035C0005800002050000020704770477047704737
:1035D000704710B500F008F8006810BD10B504463B
:1035E00000F002F8046010BD004870477C04002021
:1035F000004870477C0400207546FFF7F9FFAE468F
:1036000005006946534620F00700854618B020B5EE
:10361000FDF734F8BDE820404FF000064FF00007FA
:103620004FF000084FF0000B21F00701AC46ACE86A
:10363000C009ACE8C009ACE8C009ACE8C0098D46D7
:10364000704710B50446AFF300802046BDE8104037
:10365000FCF7B5BD490050EAC12018BF04204A0D4F
:1036600018BF40F0010040F2FF72B2EB515F08BF9B
:1036700040F00200012808BF052070472DE9F04105
:103680004F1E00EBC7010446D1E9000115461E4656
:1036900037F006020DD02A46334601F04FF87F1E60
:1036A00004EBC703D3E9002300F070FD37F00602F6
:1036B000F1D1022F25D0042F13D0062F18BFBDE85B
:1036C000F0812A46334601F039F8D4E90A2300F0A4
:1036D0005DFD2A46334601F031F8D4E9082300F0B5
:1036E00055FD2A46334601F029F8D4E9062300F0B7
:1036F0004DFD2A46334601F021F8D4E9042300F0B9
:1037000045FD2A46334601F019F8D4E9022300F0BA
:103710003DFD2A46334601F011F8D4E90023BDE807
:10372000F04100F033BD000000221346104601496D
:1037300000F0E8BD0000F03F00F028BD0022134675
:103740001046114600F0DEBD40F2013200204FF07D
:10375000E04101F035BB0000024A0020110701F0F2
:103760002FBB000001FDFFFF2DE9F04D1D460C466B
:1037700098B0174621F0004123F00043002814BF01
:103780004FF0010C4FF0000C0CEB440CFE4A0CEB1C
:1037900002064FEA620C66452BD33E0018BF012695
:1037A00006EB45061644F94A964222D3F84A53EAF4
:1037B000070C02D0944205D148B918B00020114638
:1037C000BDE8F08D002808BF4FF0000C01D04FF08D
:1037D000010C0CEB440212F5001F0AD8002F14BF95
:1037E0004FF0010C4FF0000C0CEB450212F5001FDE
:1037F00007D918B03A462B462146BDE8F04DFFF7F1
:103800009BBF0022DFF88CA3002CB8BF534526DAFB
:10381000DFF884C36345A8BF022220DADFF870C353
:103820009C451CDCDFF874C30CEB235CBCF1140F6B
:1038300008DDCCF1340627FA06FC0CFA06F6BE4287
:103840000DD108E05FB9CCF1140623FA06FC0CFA9E
:1038500006F69E4203D10CF00102C2F1020251EAC7
:10386000000C19D1002D17DA002C18BF022A01D044
:10387000012A07D00220FFF7B1FE18B0BDE8F04DD5
:10388000FFF752BF0220FFF7A9FEFFF74DFF18B068
:1038900081F00041BDE8F08DB7F1000C6CD15345CB
:1038A00025D104F1804212F5801201BF00280020CA
:1038B000B74918B008BFBDE8F08DB548884207DCAD
:1038C000002DA1BF6046294618B0BDE8F08D07E085
:1038D000281E05DA80F0004118B06046BDE8F08D82
:1038E000AF497944D1E9000118B0BDE8F08DDFF8A7
:1038F000A0C2634525D1002D1FDA19B1514512D15F
:10390000D8B909E0002840F0EC82A24A214618B05C
:1039100062F31E01BDE8F08D0020214618B060F36F
:103920001E01BDE8F08D08DA18B02346BDE8F04D61
:1039300002460020614600F0E5BC18B02146BDE813
:10394000F08D514518DAB5F1804F0DD0A5F1005C2E
:10395000BCF1FF5C10D1B4F1000C0DDB18B0614676
:10396000BDE8F04D00F0ECBB234618B00246BDE8C0
:10397000F04D194600F0E2BE060024F0004C3BD1A9
:10398000D9B1514533D1002C06DD002DA1BF002057
:10399000514618B0BDE8F08D002C01DD002D1BDB79
:1039A000002C13DA002D11DB012A4FF0000014BFA8
:1039B00078497C4918B0BDE8F08D022A18BF002C68
:1039C0000AD0012A08D1002C06DA0AE0002CB8BF80
:1039D000002D11DA012A04D0002018B00146BDE8FC
:1039E000F08D18B000204FF00041BDE8F08DA1F13E
:1039F0004050B0F17F601AD0012000EBE47050EA33
:103A0000020421D0624C521E4FF0000B104304BF41
:103A10004FF0000B644C654883427CDD644A654886
:103A200093421FDD884217DB002D25DB37E0002C99
:103A300000DA4AB1022A0CBF01204FF0FF3018B063
:103A4000BDE8F04D00F013BE0120FFF7C7FD18B030
:103A5000BDE8F04DFFF772BE4D4A8A4202DC002DF0
:103A60000ADC1CE0814202DA002D18DA04E0484B3F
:103A7000994220DD002D12DD0220FFF7AFFDFFF798
:103A800063FE05460E46002253465846214600F086
:103A900055FE18B066F31E012846BDE8F08D0220E1
:103AA000FFF79CFDFFF758FE0A46214618B062F367
:103AB0001E01BDE8F08D00223046614601F064F839
:103AC00080460E466FF0010201F07AF94FF0553250
:103AD000394B00F067FF4246334600F02FFE0022CC
:103AE000364B00F05FFF8246424633460491104653
:103AF000194600F023FE5246049B00F01FFE8A4642
:103B000000904FF0C0422E4B4046314600F016FE6A
:103B10002C4A2B4B00E027E0CDE9060151460098E6
:103B200000F00CFE82460191274A284B4046314660
:103B300000F004FE5246019B01F026F882460B4637
:103B400002460591DDE9060100F020FBDDE90623D0
:103B500000268846304601F017F85246059B00F0D3
:103B600021FF024600F07EB90020B1F5801F07DA80
:103B700035223046614601F023F906466FF03400E5
:103B800000EB215024E00000FFFF1F00FFFF0F00AB
:103B90000000F03F0000F07F0000404301FCFFFF09
:103BA000B22D00000000F0FF0000F0BF0000E04177
:103BB0000000F043FFFFEF3F5555D53F0000E03FC9
:103BC0004715F73FFE822B6544DF5DF80BAE543E90
:103BD000A0F2FF300190C1F3130040F07F6141F08B
:103BE00040510291FE498842D8BF002004DDFD49C2
:103BF0008142C8BF012001DD0D9008E000200D903A
:103C00000198401C01900298A0F580100290029942
:103C1000F54878440B910D9900EBC100D0E90023E1
:103C20000F9330460A920B9900F0AEFFCDE90601E2
:103C3000DDE90A2130460F9B00F0A8FA02460B4648
:103C40000020EA4900F05EFB059102460B46009019
:103C5000DDE9060100F072FD1490E5488A464FF058
:103C6000000878440299006812904FF0005040EA32
:103C700061010D980F9B01EB804000F50021099137
:103C80000A9A129800F080FF32460B9B00F08AFEE1
:103C90004246534600F052FD0646029140465146C8
:103CA000099B129A00F04AFDDDE9062300F07AFE36
:103CB0003246029B00F068FF059B009A00F03EFD33
:103CC0000091149A049053461046194600F036FDB0
:103CD00006460246C7480B46029106217844FFF784
:103CE000CDFCCDE90510029B32461046194600F086
:103CF00025FDDDE9053200F021FD0591064653461C
:103D000040461946149A00F041FA009B049A00F0CC
:103D100015FD3246059B00F039FACDE90510424603
:103D200053461046194600F009FD0022B24B02919D
:103D30000A9000F02BFADDE9053200F027FA0E4672
:103D40004246AD4B404600F01FFF029B0A9A00F02E
:103D50001BFFDDE9053200F025FE424602910A9084
:103D600033461046514600F0E9FCCDE906015346C2
:103D7000149A02990A9800F0E1FC8A4602903346B0
:103D800042460099049800F0D9FC5346029A00F08C
:103D9000FDF982460B4602460591DDE9060100F079
:103DA000F5F9DDE9062300208846064600F0ECFE22
:103DB0005246059B00F0F6FD824609914FF06042A5
:103DC0008E4B3046414600F0B9FC049006918C4A77
:103DD0008A4B5046099900F0B1FC82460291894A0B
:103DE000894B3046414600F0A9FC5246029B00F048
:103DF000CDF9864B7B440D9A03EBC203D3E9002334
:103E000000F0C4F90E900791019800F030FC059184
:103E1000DDE9061382460E9A049800F0B7F97C4A51
:103E20007A440D9B02EBC303D3E900230093029273
:103E300000F0ACF95246059B00F0A8F90026884630
:103E400052463046059B00F09FFE009B029A00F010
:103E50009BFE069B049A00F097FE079B0E9A00F0CB
:103E6000A1FD024600200B4602903846294600F08C
:103E700065FC824601912B4638461946029A00F0AD
:103E800083FE3246434600F059FC5246019B00F047
:103E90007DF907468A46324643462946029800F095
:103EA0004DFC05460E463A46534600F06FF9594A16
:103EB0008846914221DBA8EB020353EA000210D1AD
:103EC0002A46334600F060FECDE90401524A534BC6
:103ED0003846514600F05AF9DDE9042300F02CFD84
:103EE00021D20220FFF77AFBFFF72EFC0A4621467B
:103EF00018B062F31E01BDE8F08D494B28F0004276
:103F00009A4210D3474A08EB020353EA00027FF4B7
:103F1000C6AD2A46334600F037FE3A46534600F017
:103F20000BFD7FF6BCAD0022019228F000403E4917
:103F30003E4A01EB2051824223DA481C4FF48011A3
:103F400021FA00F040443A4AC0F30A517A44394B0E
:103F5000A1F2FF31CB4020EA0303C0F3130040F489
:103F60008010C1F11401C84012680190B8F1000F2F
:103F7000BCBF404201902846314600F005FE054690
:103F80000E462A4633463846514600F0FFF84FF0B9
:103F900000084246284B4046059100F0CFFBCDE992
:103FA0000601264A264B4046059900F0C7FB0091C2
:103FB00002902A4633464046059900F0E5FD3A4610
:103FC000534600F0EFFC1F4A1F4B00F0B7FB009B6D
:103FD000029A00F0DBF80746884602460B4635E0B9
:103FE0008E9803007AB60B00FA2900000000F03F1B
:103FF000322A0000602900000000084009C7EE3F97
:10400000FD033ADCF5015B14E02F3EBE38280000CA
:10401000FC27000000009040FE822B654715973C6E
:1040200000CC904000346F3F01FCFFFF0000E03FF8
:1040300048270000FFFF0F00432EE63F396CA80C15
:10404000615C20BEEF39FAFE422EE63FDDE9060153
:1040500000F09CF8DDE9062305460E4600F094FDCD
:104060003A46434600F09EFC0F462A4633460090EF
:104070001046194600F062FB824602462E488846EA
:104080000B4605217844FFF7F9FA5246434600F003
:1040900055FB2A46334600F085FC80468A463B465F
:1040A00028463146009A00F049FB3B46009A00F052
:1040B0006DF80691009000224FF080434046514633
:1040C00000F062FD0F460C904246534628463146AA
:1040D00000F034FB3B460C9A00F014F9069B009A62
:1040E00000F052FD2A46334600F04EFD0022134BED
:1040F00000F058FC054601980E4601EB00510815EA
:10410000002810DC28463146019A00F059FEFFF7DE
:10411000A1FA042808BFFFF71FFB28463146019A81
:1041200000F04EFE05460B4618B02A46584621467A
:10413000BDE8F04D00F002BBE82500000000F03FB4
:104140002DE9F04106460F4600F038FC041E0D46EE
:1041500018BF0120284320F00040C0F17F6000F12B
:10416000E040C00F0ED0301C18BF0120384320F0B3
:104170000040C0F17F6000F1E040C00F04BF0120AB
:10418000FFF72CFA20462946BDE8F08110B591EAE8
:10419000030F48BF83F0004300F1FE84841A71EBE3
:1041A000030C05D2121943EB0C03001B61EB0C014D
:1041B000DFF824E14FEA1154A4EB135C1EEA430F2D
:1041C00018BF9EEA445F73D023EA0E03DCF1200E91
:1041D00021EA045143F4801332D322FA0CFE10EB8F
:1041E0000E0023FA0CFE41EB0E01CCF1200E03FA77
:1041F0000EFE10EB0E0051F10001B1F5801FCCF165
:10420000200E32D201EB045112FA0EF2BDE810403A
:1042100058BF7047401C38BF5FEA420218BF704762
:10422000002814BF20F0010041F100014FEA4103D2
:1042300013F5001F38BF7047A1F1C04100F076BBF5
:10424000012A43EB0302ACF1200CDCF11F0E32BF5C
:104250004FF0000E23FA0CF310EB030041EB045176
:10426000B4EB115FD0D0A1EB045101F580114908E6
:104270005FEA300001EB04510ED350F1000038BF6B
:1042800012FA0EFE08D1BDE81040C9E7401C38BF45
:104290005FEA4202CAD1C3E7BDE810404FEA4103DA
:1042A00013F5001F38BF7047A1F1C04100F03EBBBD
:1042B0009EEA445F08D011EA5E0FBDE8104004BFDB
:1042C00001F0004100207047BDE8104070B500F0DB
:1042D000DFFA00BF64FBBE3E0000E0FF02494FF082
:1042E000000000F03BBD00BF0000F87F491058BF40
:1042F000C1F140415B1058BFC3F140438B42EFF323
:10430000008070472DE9C04130B4DFF8A0C23CEA1C
:10431000111418BF3CEA131400F0EC8081EA030585
:104320001CEA111444EAD57418BF1CEA131500F0F6
:10433000C780A4EB05044FF0004545EAC12145EADA
:10434000C32341EA505143EA525304F17F74994226
:1043500004F500344FEAC0204FEAC22208BF904261
:1043600000F09C804FEA13650FF24016765D4FEA2D
:10437000134506FB05F7C7F1807706FB07F74FEA01
:10438000D737A7FB03687642C8F58038A7FB06CE6F
:1043900038BFA8F1010807FB08E64FF0000EA6FBA6
:1043A000028CE6FB03CEDCF1000CCEF1004E38BFF0
:1043B000AEF1010EA6FB0C584FF000074FF00005C0
:1043C000E6FB0E87A1FB08C6A0FB07CE16EB0E0688
:1043D00045F10005E1FB076515F1E04E7EBFA4F550
:1043E00080345FEA46066D4116F1800745F100050D
:1043F0004FEA17274FEA066647EA0567A6F1DE4649
:10440000B6F1805F4FEA15251FD9384624F0010C1C
:1044100005EBC471BCF1FE6F01EB0C1102D8F0BCCE
:10442000BDE8008124425CBF01F5801E9EEAC47F86
:1044300002D4F0BCBDE80081244238D4F0BCA1F124
:10444000C041BDE8004100F071BA4FEAD22242EA11
:1044500043524FEAD323A7FB02864FEAD02040EA1B
:10446000415007FB03661EEA0E0F4FEAD12105FB00
:10447000026658BFA6EB0056B6EB00564FEA520E46
:104480004EEAC37E18EB0E0E56EB530EBDD518EB5D
:1044900002085E417F1C55F10005B6E74FF4801518
:1044A0004FF000074FF000064FF00008ADE7F0BCFA
:1044B0004FF0000001F1C04101F00041BDE8008172
:1044C00011EA0C1F0CEA131500D00CE013EA0C1FC4
:1044D00000F025804FF00000F0BC81EA030101F0FC
:1044E0000041BDE80081F0BCBDE8004181EA030164
:1044F00000F01CBAF0BCBDE8004170B500F0C8F98E
:10450000097EFC3E00F007B881EA03014FF000008D
:1045100001F00041704781EA030100F007BAF0BCE6
:10452000BDE800414FF0000021497047FFFDFBF955
:10453000F7F5F4F2F0EEEDEBE9E8E6E4E3E1E0DED6
:10454000DDDBDAD8D7D5D4D3D1D0CFCDCCCBCAC848
:10455000C7C6C5C4C2C1C0BFBEBDBCBBBAB9B8B76F
:10456000B6B5B4B3B2B1B0AFAEADACABAAA9A8A862
:10457000A7A6A5A4A3A3A2A1A09F9F9E9D9C9C9B30
:104580009A999998979796959594939392919190DB
:104590008F8F8E8E8D8C8C8B8B8A8989888887876C
:1045A0008685858484838382828181800000FF07E1
:1045B0000000F87F4FEA41034FEA5353A3F58063AD
:1045C000D3F11E03C8BFD3F1210C0CDD4FF0004224
:1045D00042EAC12242EA505232FA03FC8CEAE17C00
:1045E000ACEBE1707047102BC4BF0020704703F59F
:1045F000787CBCF1FF3F04D06FF0004282EA2100DA
:10460000704770B500F044F949922480002070474B
:10461000F2E700004FEA1153A3F58063D3F11E03C4
:10462000A8BFD3F1200C08DB4FF0004242EAC122C0
:1046300052EA505232FA03F0704709420BD4102B61
:10464000C4BF0020704703F5787CBCF1FF3F05D064
:104650004FF0FF3070474FF00000704770B500F02A
:1046600017F900BF4992248000207047F0E710F04E
:10467000004248BF4042B0FA80F310FA03F10AD07A
:10468000C3F11D0303F580634FEA415002EB03526F
:1046900002EBD12170474FF000007047B0FA80F371
:1046A00010FA03F10AD0C3F11D0303F580634FEA4A
:1046B00041504FEA035202EBD12170474FF0000006
:1046C0007047000051EA030C17D41CF5801F58BF37
:1046D000BCF5801F00F10680994218BF704708BFE3
:1046E0009042704707D711F5801F58BF13F5801F00
:1046F00019D499427047894270471CF5801F08D52C
:10470000BCF5801FF7D58B4218BF704708BF8242A7
:1047100070474FF4001C1CEB410F38BF1CEB430FDC
:1047200001D28B42704770B500F0B2F89224490074
:104730004FF000514FF08053FFF7D8BDDFF848C16C
:1047400070B51CEA111E1EBF1CEA13159EEA0C0F61
:1047500095EA0C0F00F06F8081EA030423EA4C1302
:104760004EEAD47E21EA4C1141F4801143F48013C7
:10477000AE44A1FB024CA0FB0365AEF17F7E36196F
:1047800055EB0C05A1FB034C4CF10003A0FB021CF4
:1047900016EB0C06654153F10003094218BF46F0C1
:1047A000010613F4007F0BD14FEA03314FEA0530C5
:1047B000340341EA155140EA16506FF003020AE053
:1047C0004FEAC3214FEAC520F40241EA555140EABD
:1047D00056506FF0020202EB2E4201EB025585EAC1
:1047E000CE710AD05FEA440C18BF24F0004450F1A7
:1047F000000041F1000120EAD47040F2FE7C6245E5
:1048000000D270BDA84214BF4FF080444FF0404426
:10481000002E08BF0024BEF1806FA8BFA1F1C041E7
:10482000BDE8704080F282804FF0000001F1C0418D
:1048300001F0004170479EEA0C0F0CEA131518BFF7
:1048400095EA0C0F06D04FF0000081EA030E0EF03F
:10485000004170BD00F01CF88900013E00F007B86F
:1048600000F009B84FEA430C5FEA5C5C08D081EACB
:10487000030100F05BB84FEA410C5FEA5C5CF6D1E3
:104880004FF00000014970470000FF070000F87F6B
:104890000EF1020E2EF0030E5EF8046B364205D4C4
:1048A000012A43EB030515F5001F12D8012841EB3F
:1048B000010C1CF5001F0CD80ED14FEAD17C15F568
:1048C000001F0CEB4C0C0CF1020C08BF4CEBD37C22
:1048D00004E04FF0080C01E04FEAD37C0CEB4C05F0
:1048E00026FA05F606F00706B6F1040C06D20EEB22
:1048F000860CBDE870404CF0010C6047DFE80CF01E
:10490000090B02024FF000414FF00000A1F5002119
:1049100070BD19461046012851EB010418BFD4F5AB
:10492000001484BF002001F0004170BD0808A0F50C
:1049300000114FEA3101704753EA010C17D41CF5FE
:10494000801F58BFBCF5801F00F106808B4218BF46
:10495000704708BF8242704707D713F5801F58BFC2
:1049600011F5801F19D48B4270479B4270471CF58C
:10497000801F08D5BCF5801FF7D5994218BF704736
:1049800008BF904270474FF4001C1CEB430F38BF28
:104990001CEB410F01D2994270470FB40CBC03BC11
:1049A000FFF7C1BE91EA030F10B581F000413FF55A
:1049B000F5AB83F0004300F0EFB800002DE9F041C3
:1049C00001F5801CBCF5001FC0F2C3804FEA115CEA
:1049D00021EA0C510CF1FD0C41F480115FEA5C0CF2
:1049E0000CF5C07C01D3400049413DA4890241EA55
:1049F000905187028E0E0A0CA45D04FB04F602FBA4
:104A000006F6C6F14046A4FB0662F60D46EA4226CB
:104A100006FB06F4A4FB01235242C3F1404338BF16
:104A20005B1EA6FB02420024E6FB0324D20B42EAF3
:104A30004446A6FB0623A1FB02E2A3FB07E4A4185D
:104A40004FF0000252F10002E3FB01426442C2F166
:104A5000404E38BFAEF1010EA6FB04234FF000021A
:104A6000E6FB0E32A2FB03464FF00004B61954F1E8
:104A70000004E2FB0264A1FB06E6A4FB07E816EBD8
:104A800008064FF0000858F10008E4FB0168764280
:104A9000C8F1405838BFA8F10108A2FB06E4A3FB07
:104AA00008E52D194FF0000454F10004E2FB08540E
:104AB000A1FB05E6A7FB04E818EB06084FF000068B
:104AC00056F10006E1FB048618F1200556F10006B8
:104AD000A809A8F11B08B10908F03F08B8F10A0FAE
:104AE00040EA86601CD901EB0C51BDE8F08100BFA3
:104AF000FCF5EEE8E2DDD8D3CFCBC7C3C0BDB9B675
:104B0000B4B1AEACA9A7A5A3A19F9D9B9A98969579
:104B10009392908F8D8C8B89888786858483828100
:104B2000A0FB006800FB01F208EB4208B8EB872805
:104B300007D5341858EB0104D5D5401C51F10001BC
:104B4000D1E7341A78EB0104CDD4401E71F1000195
:104B5000C9E75FEA4C0C5FEA9C5C0DD105D34FF0CE
:104B6000000001F00041BDE8F081BDE8F04170B502
:104B7000FFF78EFE6DDBFFBEBDE8F0414FF0000099
:104B8000004970470000F87F10B591EA030F48BF55
:104B900083F000433FF502AB841A71EB030C07D29C
:104BA00012198CF0004C43EB0C03001B61EB0C0161
:104BB000DFF8A4E14FEA1154A4EB135C1EEA430FA3
:104BC00018BF9EEA445F00F0B08023EA6E035242B1
:104BD00021EA0451C3EB6E0338BF5B1EDCF1200EEB
:104BE00025D322FA0CFE10EB0E0043FA0CFE41EB2B
:104BF0000E01CCF1200E03FA0EFE10EB0E0051F167
:104C00000001CCF1200E29D412FA0EF201EB04516E
:104C1000BDE8104058BF7047401C1CBFB2F1004FA8
:104C2000704700280CBF491C20F00100704712EBB0
:104C3000020E43EB030218BF4FF0010E4EEA420290
:104C4000ACF1200CDCF11E0E54D943FA0CFE10EB33
:104C50000E0051F1FF31CCF11E0ED5D50EF1010E33
:104C600012FA0EFE404141EB010101EB445C5FEAA8
:104C70005C5C10D910EBDE7001EB045138BFBEF163
:104C8000004FBDE8104018BF704700280CBF491CFA
:104C900020F00100704730D24FEAD42C11F50011FA
:104CA00024F400641BD0B1FA81F20B3AA41AA41EBA
:104CB000D2F12003914030FA03F31943904001EB05
:104CC000CC71002C01EB0451BDE81040A8BF704727
:104CD00001F1C0414FF0000001F000417047B0FA0F
:104CE00080F310FA03F100D110BDE41A173C480517
:104CF000C90AE4E701EB045110BD491001EB04516E
:104D0000BDE810404FEA300002E04FF0000170476C
:104D10004A0008BF0042F8D0B2F5001F28BF704714
:104D200001F000414FF0000070479EEA445F07D059
:104D300011EA5E0FBDE8104004BF0021002070475B
:104D4000BDE8104070B5FFF7A3FD00BF40DFF63EA1
:104D500083F00041104670470000E0FF0CF00F03A5
:104D6000092B08BF082000F059800A2B0BD0082B14
:104D700018BF704708BF1CF0400F0AD04FF000006A
:104D80004FF0000170471CF0400F18BF4FF000407B
:104D900070471CF0100F08D020F0704300F07F42E5
:104DA00042EAD3014FEA4370704700F0604021F0BF
:104DB0007F4242EA000201F07F4040EA7270704791
:104DC0004FF0FF0C4CF4E06C1CEA11531CBF9CEA42
:104DD000030C9445C2BFDA4201EB02517047002B2D
:104DE0000DD0BCF1000F0FD0002A01F00041A4BF8C
:104DF00041F0E04141F07F614FF00000704701F069
:104E000000414FF00000704750EA01334FF09B0C17
:104E100018BF4CF0806C7FF461AA70471CF4801FAF
:104E200011D01CF4E02F03D06FEACC314900704759
:104E30004FF04050EFF3008222F0704242EA00024D
:104E400082F3008870474FF00000704700000000B8
:104E50000000000000000000000000003F400000D3
:104E60000000000000003000400030004000000062
:104E700009000BC03D000BC03D00090018C02440D4
:104E80007FE0224031800000180024C01B000D800C
:104E90003240018003801C4027401C8007400040B6
:104EA0001000600000000000000000000000000092
:104EB00000001F80204040200000402020401F8034
:104EC00000000000090006001F8006000900000025
:104ED000040004003F800400040000000010006093
:104EE00000000000000000000400040004000400B2
:104EF000040000000000004000000000000000006E
:104F0000002001C006003800400000001F80204043
:104F1000204020401F800000000010403FC00040A3
:104F20000000000018C0214022402440184000002A
:104F300010802040244024401B80000002000D000F
:104F400011003FC0014000003C8024402440244028
:104F5000238000001F802440244034400380000050
:104F60003000200027C03800200000001B802440B3
:104F7000244024401B8000001C0022C0224022400C
:104F80001F8000000000000008400000000000003A
:104F900000000000046000000000000000000400A9
:104FA0000A001100208040400900090009000900A2
:104FB0000900000000004040208011000A000400A9
:104FC0001800200023402400180000001F8020400B
:104FD000274029401F400000004007C039000F0053
:104FE00001C0004020403FC0244024401B800000FE
:104FF0001F802040204020403080000020403FC0E3
:10500000204020401F80000020403FC024402E4010
:1050100030C0000020403FC024402E00300000007F
:105020000F001080204022403380020020403FC00B
:10503000040004003FC02040204020403FC02040EA
:10504000204000000060202020203FC020002000E1
:1050500020403FC024400B0030C0204020403FC0D3
:1050600020400040004000C03FC03C0003C03C0066
:105070003FC0000020403FC00C4023003FC0200044
:105080001F802040204020401F80000020403FC063
:1050900024402400180000001F802140214020E00F
:1050A0001FA0000020403FC02440260019C000403F
:1050B00018C02440244022403180000030002040AD
:1050C0003FC020403000000020003F8000400040F2
:1050D0003F80200020003E0001C007003800200073
:1050E000380007C03C0007C038000000204039C02D
:1050F000060039C0204000002000384007C038407A
:1051000020000000304021C02640384020C0000070
:10511000000000007FE04020402000000000700000
:105120000C000380004000000000402040207FE091
:1051300000000000000020004000200000000000EF
:1051400000100010001000100010001000000000FF
:105150004000000000000000000002800540054003
:1051600003C0004020003FC0044004400380000012
:10517000000003800440044006400000000003805B
:10518000044024403FC0004000000380054005402B
:1051900003400000000004401FC0244024402000C1
:1051A000000002E0055005500650042020403FC09A
:1051B0000440040003C000400000044027C0004039
:1051C0000000000000100010041027E000000000A4
:1051D00020403FC00140070004C004402040204060
:1051E0003FC000400040000007C0040007C00400AA
:1051F00003C00000044007C00440040003C0004096
:10520000000003800440044003800000041007F005
:105210000450044003800000000003800440045058
:1052200007F00010044007C0024004000400000022
:10523000000006400540054004C0000000000400D6
:105240001F8004400040000004000780004004402C
:1052500007C000400400070004C0018006000400ED
:10526000060001C0070001C006000000044006C09F
:10527000010006C0044000000410071004E0018093
:10528000060004000000044005C006400440000081
:105290000000000004007BE040200000000000004F
:1052A0000000FFF000000000000040207BE0040050
:1052B000000000004000800040002000200040006E
:1052C00000000000000000000000000000000000DE
:1052D0000000000000001FCC000C000000000000D7
:1052E000000008003000600008003000600000008E
:1052F000022003FC1E20022003FC1E2002200000CE
:1053000000000E1811043FFF10840C78000000000C
:105310000F0010840F3800C0077818840078000050
:1053200000780F8410C411240E9800E40084000853
:10533000080068007000000000000000000000008D
:1053400000000000000007E01818200440020000E0
:10535000000040022004181807E0000000000000D0
:105360000240024001800FF0018002400240000034
:105370000080008000800FF8008000800080000026
:105380000001000D000E0000000000000000000001
:10539000000000800080008000800080008000808D
:1053A0000000000C000C00000000000000000000E5
:1053B00000000006001800600180060018002000B0
:1053C000000007F0080810041004080807F00000A7
:1053D0000000080408041FFC000400040000000092
:1053E00000000E0C10141024104411840E0C000048
:1053F00000000C1810041104110412880C70000035
:10540000000000E00320042408241FFC0024000006
:1054100000001F98108411041104108810700000FF
:10542000000007F0088811041104188800700000BB
:1054300000001C00100010FC13001C0010000000F5
:1054400000000E3811441084108411440E380000FE
:1054500000000700088C10441044088807F0000082
:10546000000000000000030C030C0000000000001E
:105470000000000000010106000000000000000024
:105480000000008001400220041008081004000001
:10549000022002200220022002200220022000001E
:1054A00000001004080804100220014000800000E1
:1054B00000000E001200100C106C10800F00000095
:1054C00003E00C1813E4142417C4082807D00000C4
:1054D0000004003C03C41C40074000E4001C00041E
:1054E00010041FFC1104110411040E880070000048
:1054F00003E00C1810041004100410081C10000025
:1055000010041FFC100410041004080807F0000029
:1055100010041FFC1104110417C410040818000023
:1055200010041FFC1104110017C010000800000037
:1055300003E00C181004100410441C780040000014
:1055400010041FFC10840080008010841FFC1004D5
:105550000000100410041FFC1004100400000000E0
:1055600000030001100110011FFE100010000000D8
:1055700010041FFC110403801464181C10040000A4
:1055800010041FFC1004000400040004000C0000C0
:1055900010041FFC1F0000FC1F001FFC1004000073
:1055A00010041FFC0C04030000E010181FFC100086
:1055B00007F00808100410041004080807F00000A1
:1055C00010041FFC10841080108010800F00000059
:1055D00007F0081810241024101C080A07F2000015
:1055E00010041FFC1104110011C011300E0C000436
:1055F00000000E1C11041084108410441C3800009C
:105600001800100010041FFC100410001800000007
:1056100010001FF810040004000410041FF810000C
:1056200010001E0011E0001C007013801C00100010
:105630001FC0103C00E01F0000E0103C1FC0000035
:105640001004180C163401C001C01634180C1004D4
:1056500010001C00130400FC13041C0010000000C8
:105660000804101C1064108413041C04101800009B
:105670000000000000007FFE4002400240020000E7
:10568000000030000C0003800060001C00030000DC
:1056900000004002400240027FFE000000000000C7
:1056A00000000000200040004000400020000000FA
:1056B00000010001000100010001000100010001E2
:1056C000000040004000200000000000000000003A
:1056D00000000098012401440144014400FC00043E
:1056E00010001FFC00880104010400880070000005
:1056F000000000700088010401040104008800001B
:105700000000007000880104010411081FFC00045F
:10571000000000F8014401440144014400C80000B5
:105720000000010401040FFC110411041100180011
:10573000000000D601290129012901C90106000044
:1057400010041FFC008401000100010400FC00049F
:1057500000000104190419FC00040004000000000A
:105760000000000300010101190119FE0000000002
:1057700010041FFC0024004001B4010C01040000CF
:105780000000100410041FFC0004000400000000CE
:10579000010401FC0104010001FC0104010000FC02
:1057A000010401FC008401000100010400FC00046C
:1057B000000000F8010401040104010400F80000E5
:1057C000010101FF00850104010400880070000050
:1057D00000000070008801040104010501FF0001C0
:1057E0000104010401FC00840104010001800000A7
:1057F000000000CC012401240124012401980000B0
:1058000000000100010007F801040104000000008D
:10581000010001F8000400040004010801FC000478
:10582000010001800170000C001001600180010086
:1058300001F0010C003001C00030010C01F001004A
:1058400000000104018C00740170018C010400004F
:10585000010101810171000E001801600180010049
:1058600000000184010C013401440184010C00009A
:10587000000000000000000001003EFC4002400269
:105880000000000000000000FFFF0000000000001A
:105890000000400240023EFC010000000000000049
:1058A00000006000800080004000400020002000D8
:1058B00000000000000000000000000000000000E8
:1058C00000000000000000000000000000000000D8
:1058D00000000000000000000000000000000000C8
:1058E0000000000F80380FFE380F803800000000E5
:1058F00000000000000000000000000000000100A7
:10590000000600000C000038000031000006000016
:105910000C00003800003000000000000000000013
:1059200061800067F807F980006180006180006194
:10593000800061800067F807F98000618000000046
:1059400000000000000001C0E003E0F006300804A1
:1059500018081FFFFE040E080787F00381E000000F
:105960000000000001F000060C00040408060C70A2
:1059700001F9C0000E00003BE000EC180708080425
:105980000C180003E00000000001E00007F003F83D
:1059900018041C0804170807E1D003C0E00023B076
:1059A000003C08002008000010000000000000017A
:1059B00000003100003200001C0000000000000068
:1059C00000000000000000000000000000000000D7
:1059D00000000000000000000000000000000000C7
:1059E0007F0001FFC00780F00C00181000042000A9
:1059F000020000000000002000021000040C00184B
:105A00000780F001FFC0007F0000000000000000E0
:105A100000000000000000000000000042000066DE
:105A200000006600003C0000180003FFC0001800E2
:105A3000003C00006600006600004200000000001C
:105A4000080000080000080000080000080001FF2E
:105A5000C00008000008000008000008000008005E
:105A600000000000000100003100003200001C00B6
:105A70000000000000000000000000000000000026
:105A800000000000000000000800000800000800FE
:105A900000080000080000080000080000080000DE
:105AA00008000008000000000000000000000000E6
:105AB000380000380000380000000000000000003E
:105AC00000000000000000000000000000000000D6
:105AD000000600001C000070000180000E0000386D
